:020000040800F2
:10000000000002207D2800089D2300089F2300088F
:10001000A1230008A3230008A52300080000000076
:10002000000000000000000000000000A7230008FE
:10003000A923000800000000AB230008AD2300083E
:10004000CD280008CD280008CD280008CD280008BC
:10005000CD280008CD280008CD280008CD280008AC
:10006000CD280008CD280008CD280008CD2800089C
:10007000CD280008CD280008CD280008CD2800088C
:10008000CD280008CD280008CD280008CD2800087C
:10009000CD280008B1230008CD280008CD2800088D
:1000A000CD280008C1230008CD280008CD2800086D
:1000B000D1230008CD280008CD280008CD2800084D
:1000C000CD280008CD280008CD280008CD2800083C
:1000D000CD280008E1230008CD280008CD2800081D
:1000E000CD280008CD280008CD280008CD2800081C
:1000F000CD280008CD280008CD280008CD2800080C
:10010000CD280008CD280008CD280008CD280008FB
:10011000CD280008CD280008CD280008CD280008EB
:10012000CD280008CD280008CD280008CD280008DB
:10013000CD280008CD280008CD280008CD280008CB
:10014000CD280008CD280008CD280008CD280008BB
:10015000CD280008CD280008CD280008CD280008AB
:10016000CD280008CD280008CD280008CD2800089B
:10017000CD280008CD280008CD280008CD2800088B
:10018000CD280008CD280008CD280008CD2800087B
:10019000CD28000800000000CD280008CD28000868
:1001A000CD280008CD280008CD280008CD2800085B
:1001B000CD280008CD280008CD280008CD2800084B
:1001C000CD280008CD280008CD280008CD2800083B
:0801D000CD280008CD2800082D
:1002000010B5054C237833B9044B13B10448AFF350
:1002100000800123237010BDBC09002000000000F5
:10022000E0F4000808B5034B1BB103490348AFF3E2
:10023000008008BD00000000C0090020E0F40008B4
:1002400081F0004102E000BF83F0004330B54FEA87
:1002500041044FEA430594EA050F08BF90EA020FF4
:100260001FBF54EA000C55EA020C7FEA645C7FEA87
:10027000655C00F0E2804FEA5454D4EB5555B8BFAA
:100280006D420CDD2C4480EA020281EA030382EA1B
:10029000000083EA010180EA020281EA0303362DAD
:1002A00088BF30BD11F0004F4FEA01314FF4801C80
:1002B0004CEA113102D0404261EB410113F0004F92
:1002C0004FEA03334CEA133302D0524263EB430349
:1002D00094EA050F00F0A780A4F10104D5F1200EE7
:1002E0000DDB02FA0EFC22FA05F2801841F1000142
:1002F00003FA0EF2801843FA05F359410EE0A5F116
:1003000020050EF1200E012A03FA0EFC28BF4CF046
:10031000020C43FA05F3C01851EBE37101F00045FC
:1003200007D54FF0000EDCF1000C7EEB00006EEB09
:100330000101B1F5801F1BD3B1F5001F0CD3490893
:100340005FEA30004FEA3C0C04F101044FEA4452EA
:1003500012F5800F80F09A80BCF1004F08BF5FEA71
:10036000500C50F1000041EB045141EA050130BD51
:100370005FEA4C0C404141EB0101013C28BFB1F563
:10038000801FE9D291F0000F04BF01460020B1FAAE
:1003900081F308BF2033A3F10B03B3F120020CDA81
:1003A0000C3208DD02F1140CC2F10C0201FA0CF05F
:1003B00021FA02F10CE002F11402D8BFC2F1200CC4
:1003C00001FA02F120FA0CFCDCBF41EA0C0190407A
:1003D000E41AA2BF01EB0451294330BD6FEA0404C3
:1003E0001F3C1CDA0C340EDC04F11404C4F12002AE
:1003F00020FA04F001FA02F340EA030021FA04F3C0
:1004000045EA030130BDC4F10C04C4F1200220FA16
:1004100002F001FA04F340EA0300294630BD21FA54
:1004200004F0294630BD94F0000F83F4801306BF1A
:1004300081F480110134013D4EE77FEA645C18BF0E
:100440007FEA655C29D094EA050F08BF90EA020FA5
:1004500005D054EA000C04BF1946104630BD91EA9D
:10046000030F1EBF0021002030BD5FEA545C05D1A0
:100470004000494128BF41F0004130BD14F58004DF
:100480003CBF01F5801130BD01F0004545F0FE4153
:1004900041F470014FF0000030BD7FEA645C1ABF88
:1004A000194610467FEA655C1CBF0B46024650EABF
:1004B000013406BF52EA033591EA030F41F40021EB
:1004C00030BD00BF90F0000F04BF0021704730B571
:1004D0004FF4806404F132044FF000054FF0000146
:1004E00050E700BF90F0000F04BF0021704730B507
:1004F0004FF4806404F1320410F0004548BF4042DC
:100500004FF000013EE700BF42004FEAE2014FEA30
:1005100031014FEA02701FBF12F07F4393F07F4F0B
:1005200081F06051704732F07F4208BF704793F00E
:100530007F4F04BF41F40021704730B54FF4607421
:1005400001F0004521F000411CE700BF50EA010224
:1005500008BF704730B54FF000050AE050EA0102CD
:1005600008BF704730B511F0004502D5404261EB3D
:1005700041014FF4806404F132045FEA915C3FF47E
:10058000D8AE4FF003025FEADC0C18BF03325FEA1B
:10059000DC0C18BF033202EBDC02C2F1200300FACC
:1005A00003FC20FA02F001FA03FE40EA0E0021FAF1
:1005B00002F11444BDE600BF80F0004002E000BF3D
:1005C00081F0004142001FBF5FEA410392EA030F3E
:1005D0007FEA226C7FEA236C6AD04FEA1262D2EB88
:1005E0001363C1BFD218414048404140B8BF5B428D
:1005F000192B88BF704710F0004F40F4000020F026
:100600007F4018BF404211F0004F41F4000121F03B
:100610007F4118BF494292EA030F3FD0A2F1010285
:1006200041FA03FC10EB0C00C3F1200301FA03F1C3
:1006300000F0004302D5494260EB4000B0F5000FE6
:1006400013D3B0F1807F06D340084FEA310102F1A5
:100650000102FE2A51D2B1F1004F40EBC25008BF57
:1006600020F0010040EA03007047490040EB000021
:10067000013A28BFB0F5000FEDD2B0FA80FCACF122
:10068000080CB2EB0C0200FA0CF0AABF00EBC2504F
:1006900052421843BCBFD0401843704792F0000F3D
:1006A00081F4000106BF80F400000132013BB5E790
:1006B0004FEA41037FEA226C18BF7FEA236C21D006
:1006C00092EA030F04D092F0000F08BF084670476B
:1006D00090EA010F1CBF0020704712F07F4F04D139
:1006E000400028BF40F00040704712F100723CBF4C
:1006F00000F50000704700F0004343F0FE4040F476
:10070000000070477FEA226216BF08467FEA236333
:100710000146420206BF5FEA412390EA010F40F41E
:10072000800070474FF0000304E000BF10F000436A
:1007300048BF40425FEA000C08BF704743F0964351
:1007400001464FF000001CE050EA010208BF70476C
:100750004FF000030AE000BF50EA010208BF7047F3
:1007600011F0004302D5404261EB41015FEA010C08
:1007700002BF84460146002043F0B64308BFA3F100
:100780008053A3F50003BCFA8CF2083AA3EBC253E2
:1007900010DB01FA02FC634400FA02FCC2F1200201
:1007A000BCF1004F20FA02F243EB020008BF20F038
:1007B0000100704702F1200201FA02FCC2F120029E
:1007C00050EA4C0021FA02F243EB020008BF20EA93
:1007D000DC7070474FF0FF0C1CEAD0521EBF1CEAC1
:1007E000D15392EA0C0F93EA0C0F6FD01A4480EAAF
:1007F000010C400218BF5FEA41211ED04FF0006398
:1008000043EA501043EA5111A0FB01310CF00040C3
:10081000B1F5000F3EBF490041EAD3715B0040EAE9
:10082000010062F17F02FD2A1DD8B3F1004F40EBB9
:10083000C25008BF20F00100704790F0000F0CF08C
:10084000004C08BF49024CEA502040EA51207F3A50
:10085000C2BFD2F1FF0340EAC250704740F400002B
:100860004FF00003013A5DDC12F1190FDCBF00F01C
:1008700000407047C2F10002410021FA02F1C2F1CA
:10088000200200FA02FC5FEA310040F1000053EA66
:100890004C0308BF20EADC70704792F0000F00F0B4
:1008A000004C02BF400010F4000F013AF9D040EABA
:1008B0000C0093F0000F01F0004C02BF490011F44E
:1008C000000F013BF9D041EA0C018FE70CEAD1534C
:1008D00092EA0C0F18BF93EA0C0F0AD030F0004CCC
:1008E00018BF31F0004CD8D180EA010000F0004080
:1008F000704790F0000F17BF90F0004F084691F03E
:10090000000F91F0004F14D092EA0C0F01D1420277
:100910000FD193EA0C0F03D14B0218BF084608D140
:1009200080EA010000F0004040F0FE4040F400008A
:10093000704740F0FE4040F4400070474FF0FF0C1D
:100940001CEAD0521EBF1CEAD15392EA0C0F93EA64
:100950000C0F69D0A2EB030280EA010C49024FEAB6
:10096000402037D04FF0805343EA111143EA10136F
:100970000CF000408B4238BF5B0042F17D024FF427
:10098000000C8B4224BF5B1A40EA0C00B3EB510F02
:1009900024BFA3EB510340EA5C00B3EB910F24BFEB
:1009A000A3EB910340EA9C00B3EBD10F24BFA3EB70
:1009B000D10340EADC001B0118BF5FEA1C1CE0D138
:1009C000FD2A3FF650AF8B4240EBC25008BF20F0EB
:1009D000010070470CF0004C4CEA50207F32C2BF3F
:1009E000D2F1FF0340EAC250704740F400004FF0DC
:1009F0000003013A37E792F0000F00F0004C02BF0D
:100A0000400010F4000F013AF9D040EA0C0093F0D6
:100A1000000F01F0004C02BF490011F4000F013B30
:100A2000F9D041EA0C0195E70CEAD15392EA0C0F98
:100A300008D142027FF47DAF93EA0C0F7FF470AFD0
:100A4000084676E793EA0C0F04D14B023FF44CAF13
:100A500008466EE730F0004C18BF31F0004CCAD1A8
:100A600030F000427FF45CAF31F000437FF43CAFE4
:100A70005FE700BF4FF0FF3C06E000BF4FF0010C06
:100A800002E000BF4FF0010C4DF804CD4FEA4002E8
:100A90004FEA41037FEA226C18BF7FEA236C11D032
:100AA00001B052EA530C18BF90EA010F58BFB2EBE5
:100AB000030088BFC81738BF6FEAE17018BF40F065
:100AC000010070477FEA226C02D15FEA402C05D119
:100AD0007FEA236CE4D15FEA412CE1D05DF8040B9E
:100AE000704700BF844608466146FFE70FB5FFF731
:100AF000C9FF002848BF10F1000F0FBD4DF808EDE9
:100B0000FFF7F4FF0CBF012000205DF808FB00BFD9
:100B10004DF808EDFFF7EAFF34BF012000205DF833
:100B200008FB00BF4DF808EDFFF7E0FF94BF012080
:100B300000205DF808FB00BF4DF808EDFFF7D2FF7D
:100B400094BF012000205DF808FB00BF4DF808EDC0
:100B5000FFF7C8FF34BF012000205DF808FB00BF8D
:100B60004FEA4002B2F1FE4F0FD34FF09E03B3EBBA
:100B700012620DD94FEA002343F0004310F0004FFA
:100B800023FA02F018BF404270474FF00000704750
:100B900012F1610F01D1420205D110F0004008BFEF
:100BA0006FF0004070474FF00000704742000ED2D7
:100BB000B2F1FE4F0BD34FF09E03B3EB126209D498
:100BC0004FEA002343F0004323FA02F070474FF04E
:100BD0000000704712F1610F01D1420202D14FF0C3
:100BE000FF3070474FF00000704700BF53B94AB95B
:100BF000002908BF00281CBF4FF0FF314FF0FF3025
:100C000000F074B9ADF1080C6DE904CE00F006F8FF
:100C1000DDF804E0DDE9022304B070472DE9F04778
:100C2000089E0D4604468846002B4DD18A429446C4
:100C300068D9B2FA82F252B101FA02F3C2F120018C
:100C400020FA01F10CFA02FC41EA030894404FEA51
:100C50001C45210CB8FBF5FE1FFA8CF705FB1E8323
:100C600041EA03430EFB07F199420BD91CEB030346
:100C70000EF1FF3080F01E81994240F21B81AEF1EF
:100C8000020E63445B1AA4B2B3FBF5F005FB10330C
:100C900044EA034400FB07F7A7420AD91CEB04040B
:100CA00000F1FF3380F00881A74240F205816444DF
:100CB0000238E41B40EA0E4000211EB1D44000235C
:100CC000C6E90043BDE8F0878B4208D9002E00F04A
:100CD000EE800021C6E900050846BDE8F087B3FABA
:100CE00083F100294AD1AB4202D3824200F2F9805B
:100CF000841A65EB030301209846002EE2D0C6E972
:100D00000048DFE702B9FFDEB2FA82F2002A40F0C3
:100D10009180A1EB0C054FEA1C471FFA8CFE0121C4
:100D2000B5FBF7F307FB1350250C45EA00450EFB16
:100D300003F0A84208D91CEB050503F1FF3802D2E5
:100D4000A84200F2CB8043462D1AA4B2B5FBF7F0BF
:100D500007FB105544EA05440EFB00FEA64508D9E2
:100D60001CEB040400F1FF3502D2A64500F2BB8063
:100D70002846A4EB0E0440EA03409EE7C1F1200799
:100D80008B4022FA07FC4CEA030C20FA07F405FA20
:100D900001F31C43FD404FEA1C4900FA01F3B5FB87
:100DA000F9F8200C1FFA8CFE09FB185540EA05459E
:100DB00008FB0EF0A84202FA01F20BD91CEB050564
:100DC00008F1FF3A80F08880A84240F28580A8F1BF
:100DD000020865442D1AA4B2B5FBF9F009FB1055C1
:100DE00044EA054500FB0EFEAE4508D91CEB05059F
:100DF00000F1FF346CD2AE456AD90238654440EA4E
:100E00000840A0FB0294A5EB0E05A542C846A646E5
:100E100056D353D05EB1B3EB080265EB0E0505FA6D
:100E200007F722FA01F3CD401F43C6E90075002100
:100E3000BDE8F087C2F1200320FA03F10CFA02FCAE
:100E400025FA03F395400D434FEA1C471FFA8CFE29
:100E5000B3FBF7F107FB11302B0C43EA004301FB16
:100E60000EF0984204FA02F408D91CEB030301F1D6
:100E7000FF382FD298422DD9023963441B1AADB2E4
:100E8000B3FBF7F007FB103345EA034500FB0EF315
:100E9000AB4208D91CEB050500F1FF3816D2AB4276
:100EA00014D902386544ED1A40EA014138E7314669
:100EB000304607E78646E5E61846FAE64B45A9D2EE
:100EC000B9EB020864EB0C0E0138A3E74046EAE7F1
:100ED000204694E74146D1E7D0467BE7023B654494
:100EE00032E7084609E76444023842E7704700BF2A
:100EF00000000000000000000000000000000000F2
:100F000090F800F06DE9024520F007016FF0000C49
:100F100010F0070491F820F040F049804FF00004F1
:100F20006FF00700D1E9002391F840F000F10800CC
:100F300082FA4CF2A4FA8CF283FA4CF3A2FA8CF304
:100F40004BBBD1E9022382FA4CF200F10800A4FA6B
:100F50008CF283FA4CF3A2FA8CF3E3B9D1E90423BF
:100F600082FA4CF200F10800A4FA8CF283FA4CF3F6
:100F7000A2FA8CF37BB9D1E9062301F1200182FAB0
:100F80004CF200F10800A4FA8CF283FA4CF3A2FAB6
:100F90008CF3002BC6D0002A04BF04301A4612BAC4
:100FA000B2FA82F2FDE8024500EBD2007047D1E9C7
:100FB000002304F00305C4F100004FEAC50514F056
:100FC000040F91F840F00CFA05F562EA05021CBF27
:100FD00063EA050362464FF00004A9E70000000041
:100FE00001F0FF01102A2BDB10F0070F08D010F8DA
:100FF000013B013A8B422DD010F0070F42B3F6D1DE
:10100000F0B441EA012141EA014122F007047FF0F6
:1010100000070023F0E80256083C85EA010586EA4D
:10102000010685FA47F5A3FA87F586FA47F6A5FA89
:1010300087F68EB9EED1F0BC01F0FF0102F0070295
:1010400032B110F8013B013A83EA010313B1F8D140
:101050000020704701387047002D06BF3546033821
:10106000073815F0010F07D1013015F4807F02BF5A
:10107000013015F4C03F0130F0BC0138704700BFAB
:10108000844641EA000313F003036DD1403A41D393
:1010900051F8043B40F8043B51F8043B40F8043B52
:1010A00051F8043B40F8043B51F8043B40F8043B42
:1010B00051F8043B40F8043B51F8043B40F8043B32
:1010C00051F8043B40F8043B51F8043B40F8043B22
:1010D00051F8043B40F8043B51F8043B40F8043B12
:1010E00051F8043B40F8043B51F8043B40F8043B02
:1010F00051F8043B40F8043B51F8043B40F8043BF2
:1011000051F8043B40F8043B51F8043B40F8043BE1
:10111000403ABDD2303211D351F8043B40F8043B81
:1011200051F8043B40F8043B51F8043B40F8043BC1
:1011300051F8043B40F8043B103AEDD20C3205D391
:1011400051F8043B40F8043B043AF9D2043208D089
:10115000D2071CBF11F8013B00F8013B01D30B88FB
:1011600003806046704700BF082A13D38B078DD0D9
:1011700010F003038AD0C3F10403D21ADB071CBFAB
:1011800011F8013B00F8013B80D331F8023B20F815
:10119000023B7BE7043AD9D3013A11F8013B00F84E
:1011A000013BF9D20B7803704B7843708B788370D6
:1011B0006046704770B54FF0FF0C4CF4E06C1CEAD1
:1011C00011541DBF1CEA135594EA0C0F95EA0C0F3D
:1011D00000F0DEF82C4481EA030621EA4C5123EAB0
:1011E0004C5350EA013518BF52EA033541F48011DF
:1011F00043F4801338D0A0FB02CE4FF00005E1FB92
:1012000002E506F00042E0FB03E54FF00006E1FBDB
:1012100003569CF0000F18BF4EF0010EA4F1FF041E
:10122000B6F5007F64F5407404D25FEA4E0E6D415E
:1012300046EB060642EAC62141EA55514FEAC5206F
:1012400040EA5E504FEACE2EB4F1FD0C88BFBCF5EB
:10125000E06F1ED8BEF1004F08BF5FEA500E50F19C
:10126000000041EB045170BD06F0004646EA010162
:1012700040EA020081EA0301B4EB5C04C2BFD4EB94
:101280000C0541EA045170BD41F480114FF0000E8D
:10129000013C00F3AB8014F1360FDEBF002001F0FB
:1012A000004170BDC4F10004203C35DA0C341BDC75
:1012B00004F11404C4F1200500FA05F320FA04F047
:1012C00001FA05F240EA020001F0004221F000417B
:1012D00010EBD37021FA04F642EB06015EEA430EEE
:1012E00008BF20EAD37070BDC4F10C04C4F120051E
:1012F00000FA04F320FA05F001FA04F240EA0200D1
:1013000001F0004110EBD37041F100015EEA430EA1
:1013100008BF20EAD37070BDC4F1200500FA05F2C1
:101320004EEA020E20FA04F301FA05F243EA020340
:1013300021FA04F001F0004121FA04F220EA02004F
:1013400000EBD3705EEA430E08BF20EAD37070BD95
:1013500094F0000F0FD101F00046400041EB010175
:1013600011F4801F08BF013CF7D041EA060195F057
:10137000000F18BF704703F00046520043EB030311
:1013800013F4801F08BF013DF7D043EA06037047FE
:1013900094EA0C0F0CEA135518BF95EA0C0F0CD009
:1013A00050EA410618BF52EA4306D1D181EA03014F
:1013B00001F000414FF0000070BD50EA410606BF49
:1013C0001046194652EA430619D094EA0C0F02D18E
:1013D00050EA013613D195EA0C0F05D152EA0336D3
:1013E0001CBF104619460AD181EA030101F00041F1
:1013F00041F0FE4141F470014FF0000070BD41F03A
:10140000FE4141F4780170BD70B54FF0FF0C4CF413
:10141000E06C1CEA11541DBF1CEA135594EA0C0F32
:1014200095EA0C0F00F0A7F8A4EB050481EA030E7F
:1014300052EA03354FEA013100F088804FEA033366
:101440004FF0805545EA131343EA12634FEA022234
:1014500045EA111545EA10654FEA00260EF00041F5
:101460009D4208BF964244F1FD0404F5407402D247
:101470005B084FEA3202B61A65EB03055B084FEAD8
:1014800032024FF480104FF4002CB6EB020E75EBD5
:10149000030E22BFB61A754640EA0C005B084FEAFD
:1014A0003202B6EB020E75EB030E22BFB61A75467A
:1014B00040EA5C005B084FEA3202B6EB020E75EBC5
:1014C000030E22BFB61A754640EA9C005B084FEA3D
:1014D0003202B6EB020E75EB030E22BFB61A75464A
:1014E00040EADC0055EA060E18D04FEA051545EA39
:1014F00016754FEA06164FEAC30343EA52734FEAE2
:10150000C2025FEA1C1CC0D111F4801F0BD141EA5A
:1015100000014FF000004FF0004CB6E711F4801FBF
:1015200004BF01430020B4F1FD0C88BFBCF5E06F9F
:101530003FF6AFAEB5EB030C04BFB6EB020C5FEAAF
:10154000500C50F1000041EB045170BD0EF0004E04
:101550004EEA113114EB5C04C2BFD4EB0C0541EA36
:10156000045170BD41F480114FF0000E013C90E633
:1015700045EA060E8DE60CEA135594EA0C0F08BFF7
:1015800095EA0C0F3FF43BAF94EA0C0F0AD150EAF6
:1015900001347FF434AF95EA0C0F7FF425AF104689
:1015A00019462CE795EA0C0F06D152EA03353FF4B1
:1015B000FDAE1046194622E750EA410618BF52EA2E
:1015C00043067FF4C5AE50EA41047FF40DAF52EA02
:1015D00043057FF4EBAE12E74FF0FF3C06E000BF9F
:1015E0004FF0010C02E000BF4FF0010C4DF804CDAC
:1015F0004FEA410C7FEA6C5C4FEA430C18BF7FEA6C
:101600006C5C1BD001B050EA410C0CBF52EA430C99
:1016100091EA030F02BF90EA020F0020704710F119
:10162000000F91EA030F58BF994208BF90422CBFA8
:10163000D8176FEAE37040F0010070474FEA410CA1
:101640007FEA6C5C02D150EA013C07D14FEA430CBF
:101650007FEA6C5CD6D152EA033CD3D05DF8040B30
:10166000704700BF8446104662468C461946634662
:1016700000E000BF01B5FFF7B7FF002848BF10F139
:10168000000F01BD4DF808EDFFF7F4FF0CBF01207E
:1016900000205DF808FB00BF4DF808EDFFF7EAFFFA
:1016A00034BF012000205DF808FB00BF4DF808EDB5
:1016B000FFF7E0FF94BF012000205DF808FB00BFAA
:1016C0004DF808EDFFF7CEFF94BF012000205DF834
:1016D00008FB00BF4DF808EDFFF7C4FF34BF012041
:1016E00000205DF808FB00BF4FEA410C7FEA6C5C0C
:1016F00002D150EA013C0AD14FEA430C7FEA6C5C0C
:1017000002D152EA033C02D14FF0000070474FF083
:10171000010070474FEA410212F5001215D211D5AF
:101720006FF47873B3EB625212D94FEAC12343F0DE
:10173000004343EA505311F0004F23FA02F018BF60
:10174000404270474FF00000704750EA013005D129
:1017500011F0004008BF6FF0004070474FF00000EC
:10176000704700BF4A0011D212F5001211D20DD5F8
:101770006FF47873B3EB62520ED44FEAC12343F097
:10178000004343EA505323FA02F070474FF0000041
:10179000704750EA013002D14FF0FF3070474FF0F0
:1017A000000070474FEA4102B2F1E04324BFB3F5B5
:1017B000001CDCF1FE5C0DD901F0004C4FEAC002C8
:1017C0004CEA5070B2F1004F40EB830008BF20F0AC
:1017D0000100704711F0804F21D113F13872BCBF66
:1017E00001F00040704741F480114FEA5252C2F1BB
:1017F0001802C2F1200C10FA0CF320FA02F018BF04
:1018000040F001004FEAC1234FEAD32303FA0CFC56
:1018100040EA0C0023FA02F34FEA4303CCE77FEAE5
:10182000625307D150EA01331EBF4FF0FE4040F42F
:101830004000704701F0004040F0FE4040F40000DE
:10184000704700BF38B505460C46284621460022A1
:101850000023FFF721FF28B928462146BDE838407C
:1018600000F00AB8284604F1004100F005F84042B3
:1018700061EB410138BD00BFD0B50C4B00220646DC
:101880000F46FFF797FCFFF76DFF0446FEF71AFEC1
:10189000074B0022FFF78EFC02460B4630463946C6
:1018A000FEF7D2FCFFF75EFF2146D0BD0000F03D01
:1018B0000000F04170B586B00024009401940294B9
:1018C00001260396049440F2FF730593074D694681
:1018D000284601F071FA284601F09EFA2246314668
:1018E000284601F08BFB06B070BD00BF600A0020E7
:1018F00010B58CB004462422002103A804F0FAF8A5
:101900000023019302934FF400730393082306937B
:1019100044FA03F38DF80A308DF80B4001AA03A9AD
:10192000024801F090FA0CB010BD00BF600A002020
:1019300000B58DB06B4602AA402101F0ADFA029BC2
:10194000B3F5017F02D00DB05DF804FB9DF80030C7
:101950009DF8012042EA03220A4B1A809DF80210EA
:101960009DF8032042EA01225A809DF804109DF858
:10197000052042EA01229A809DF806209A710122F0
:10198000DA71E0E7D809002030B583B0184C194B64
:10199000236000256560A560E5600023A4F8703031
:1019A000A4F87230636784F87830012284F87920D3
:1019B00084F87A3084F87B3084F87D3084F87C2099
:1019C0000D4B01930D4B00932B460D4A0D4904F12D
:1019D000100000F05CFB0C4B01930C4B00930C4B84
:1019E0002A460C4904F1400000F051FB03B030BD21
:1019F000E00900200000484200409C4500401C4691
:101A0000CDCC4C3D0000704100007A4500001643EB
:101A10000000C8420000F0412A4BDB79002B50D077
:101A200070B5284C0023E371B4F90200FEF77EFE86
:101A30002549FEF783FF254B9860208893F878307E
:101A400073B1224B93F87B30013BDBB2012B0ED9F3
:101A50001E4B0022DA6000225A67A3F8720070BDA4
:101A60001A4BA3F87200012283F87820F7E7174B8E
:101A7000B3F87230C31A1BB2B3F5805F19DD134A95
:101A8000536F013B5367114CA4F87200666FFEF769
:101A900049FE4FF06451FEF79DFE05463046FEF7C5
:101AA00045FE2946FEF78EFD0949FEF747FFE06037
:101AB000D5E713F5805FE6DA044A536F01335367C5
:101AC000E1E77047D809002000007042E0090020DB
:101AD00000001042014B1860704700BFE009002071
:101AE000014B5860704700BFE0090020014B58606F
:101AF00019607047E0090020024B186159619A6132
:101B0000704700BFE0090020024B186459649A64D2
:101B1000704700BFE009002038B5424B93F8783099
:101B200083B3404B93F8793063B33E4A92F87B30ED
:101B300092F87D20934209D0012B28D0022B32D07D
:101B40000BB3384B93F87B2083F87D20354B1C6812
:101B500093F87B30012B30D0022B42D0314B93F8DD
:101B60007A300BB104F100442E4DAA68214605F1EC
:101B7000100000F09CFAFEF7F3FF00B2A5F8700029
:101B8000FFF7B6FE38BD284800F0E1FAD9E7254C4A
:101B900004F1100000F0DBFA04F1400000F0D7FA85
:101BA000E3686360CDE71F4C04F1100000F0CFFA4A
:101BB00004F1400000F0CBFAC3E71A48C26841685C
:101BC000403000F074FA04461849FEF7BFFF00B138
:101BD000164C17492046FEF79BFF0028BED0144C38
:101BE000BCE7104CE268616804F1400000F05FFA65
:101BF0000546246824F000440E492046FEF788FF7D
:101C000000B10C4C29462046FEF782FF0028A5D1E2
:101C100004F1004004462946FEF798FF00289DD1B4
:101C20002C469BE7E0090020200A002000004842E3
:101C3000000048C2CDCCCC3D30B58BB0002405941B
:101C400006940794089409941C4BDA6C42F0200225
:101C5000DA64DA6C02F020020192019ADA6C42F046
:101C60000402DA64DA6C02F004020292029ADA6C7C
:101C700042F01002DA64DA6C02F010020392039A66
:101C8000DA6C42F00102DA64DB6C03F001030493C6
:101C9000049B0B4D22464FF44051284601F0EEFBC9
:101CA0004FF440530593012306930794089405A924
:101CB000284601F0F5FA0BB030BD00BF001002401D
:101CC0000010004830B587B00024019402940394BA
:101CD000049405940E4BDA6C42F01002DA64DB6C6B
:101CE00003F010030093009B0A4D22464FF440512D
:101CF000284601F0C3FB4FF44053019301230293A4
:101D00000394049401A9284601F0CAFA07B030BD33
:101D1000001002400010004811F0010F00D1704780
:101D200008B5FFF705FE08BD08B50268034B9A42E7
:101D300000D008BD00F07AFDFBE700BF003801408D
:101D400010B5044602681E4B9A4204D02368B3F1D2
:101D5000804F03D010BD00F0C9FDF7E7194A1368A2
:101D600001331360184A136801331360312B17D8FD
:101D7000144B1A68154BA3FB02139B09C82101FBE6
:101D80001323B3B100F07BF9114A136801331360D8
:101D9000092BDFD9134600221A6000F0F3FCD9E7C3
:101DA000134600221A604FF480510A4801F06BFB81
:101DB000DEE74FF40051074801F065FBE2E700BFA2
:101DC000002C0140A80B0020A40B00201F85EB5124
:101DD000AC0B00200010004808B572B60F4C012271
:101DE0004FF48051204601F049FB00224FF400518E
:101DF000204601F043FB642000F08AFD00224FF4EE
:101E00008051204601F03AFB01224FF40051204658
:101E100001F034FB642000F07BFDDFE70010004898
:101E200008B50F480F4B0360002343608360C36015
:101E300003744374837405224261012282610D217F
:101E4000C1610321016242628262C2620263436332
:101E50008363C36300F0C6FE00B908BDFFF7BCFF93
:101E6000600A00200064004000B589B0002304939C
:101E700005930693079301930293039314484FF03D
:101E80008042026044F26722426083606322C26043
:101E900003618023836102F05BFB90B94FF48053B0
:101EA000049304A90A4802F08FFB60B90023019350
:101EB000039301A9064802F031FC30B909B05DF87E
:101EC00004FBFFF789FFFFF787FFFFF785FF00BFE0
:101ED000C40A002008B51548154B03604FF4E133E0
:101EE000436000238360C36003610C22426183610D
:101EF000C36103624362836203F048FC70B900214E
:101F00000A4803F083FD58B90021084803F0A3FDF7
:101F100040B9064803F05BFD30B908BDFFF75CFF30
:101F2000FFF75AFFFFF758FFFFF756FF100B00208F
:101F30000038014000B595B03822002106A803F012
:101F4000D9FD00200190029003900490059001F0CB
:101F5000A3FA012306934FF48033079302230D93D2
:101F600003220E920C220F925522109211930422FA
:101F70001292139306A801F049FB90B90F23019325
:101F800003230293002303934FF48062049205938A
:101F900004210DEB010001F0EFFD20B915B05DF853
:101FA00004FBFFF719FFFFF717FF000038B500F03B
:101FB0008EFCFFF7BFFFFFF73FFEFFF731FFFFF794
:101FC00053FFFFF787FFFFF77DFE254C01224FF4FB
:101FD0008051204601F052FA01224FF40051204670
:101FE00001F04CFA4FF4FA6000F092FC00224FF43A
:101FF0008051204601F042FA00224FF40051204661
:1020000001F03CFA4FF4FA7000F082FC00251FE06A
:10201000134C01224FF48051204601F02FFA012287
:102020004FF40051204601F029FAC82000F070FC5E
:1020300000224FF48051204601F020FA00224FF494
:102040000051204601F01AFAC82000F061FC013569
:10205000022DDDDD00F008F8024802F0BDF8FEE7D1
:1020600000100048C40A002008B5FFF723FC6420D4
:1020700000F04EFCFFF788FC00F01AFA08BD08B526
:10208000FFF7CAFC00F020FAFFF746FD08BD01602B
:1020900042608360009B8362019BC3620023C36034
:1020A000036143618361C361036243627047F8B5B2
:1020B000044608461146E0602261FEF781FA0546B3
:1020C0006061E169FEF77EFA0646E061E76A39463B
:1020D000FEF73CFD38B3E761A1692846FEF770FAC8
:1020E0000646206221682846FEF774FB0746E16930
:1020F0006068FEF76FFB01463846FEF763FA074655
:10210000A1683046FEF766FB01463846FEF75AFAEC
:1021100006466062A76A3946FEF718FD68B1676235
:10212000A561606AF8BD07F1004739463046FEF701
:10213000EFFC0028D0D0E761CEE707F10047394631
:102140003046FEF7E5FC0028EAD06762E8E70023A6
:1021500043618361C36103624362704700B583B02A
:102160000B4B1A6E42F001021A661A6E02F001025F
:102170000092009A9A6D42F080529A659B6D03F02E
:1021800080530193019B01F00DFA03B05DF804FB4D
:102190000010024010B59CB0044600211791189120
:1021A00019911A911B91542202A803F0A3FC2268F2
:1021B0001E4B9A4201D01CB010BD4FF480530293C5
:1021C0004FF00073109302A801F01AFE50BB184B99
:1021D0009A6D42F000729A659A6D02F00072009258
:1021E000009ADA6C42F00102DA64DB6C03F001035E
:1021F0000193019B4FF4C0531793022318930024BB
:1022000019941A9409231B9317A94FF0904001F0D9
:1022100047F822462146152000F0A0FB152000F0CB
:10222000D5FBC8E7FFF7D8FDD1E700BF0064004049
:10223000001002400368B3F1804F00D0704700B532
:1022400083B003F504339A6D42F001029A659B6DE9
:1022500003F001030193019B002211461C2000F0B2
:102260007DFB1C2000F0B2FB03B05DF804FB000016
:1022700010B59CB0044600211791189119911A913C
:102280001B91542202A803F035FC22681B4B9A4292
:1022900001D01CB010BD0123029302A801F0B0FDD3
:1022A00040BB174B1A6E42F480421A661A6E02F453
:1022B00080420092009ADA6C42F00402DA64DB6C2D
:1022C00003F004030193019B302317930223189317
:1022D000002419941A9407231B9317A9094800F0A6
:1022E000DFFF22462146252000F038FB252000F0A4
:1022F0006DFBCEE7FFF770FDD3E700BF003801406C
:10230000001002400008004830B589B004461E4B5A
:102310001A6E42F400621A661B6E03F400630193A6
:10232000019B02A903A801F04DFD01F039FD034610
:102330001648A0FB03239B0C013B1548154A02607D
:1023400040F2E732C260436000230361836002F021
:10235000FFF8054610B1284609B030BD0C4801F021
:102360003BFF05460028F6D1192000F02FFB0F2C6B
:1023700001D90125EFE700222146192000F0EEFAED
:10238000054B1C60E7E700BF0010024083DE1B43E3
:10239000B00B0020002C014008000020FEE7FEE703
:1023A000FEE7FEE7FEE770477047704770470000A2
:1023B00008B5024800F0AFFE08BD00BF600A00206B
:1023C00008B5024801F056FF08BD00BFB00B002061
:1023D00008B5024801F04EFF08BD00BFC40A002046
:1023E00008B5024802F042FA08BD00BF100B0020F9
:1023F0000120704708B503F053FB162303604FF02C
:10240000FF3008BD08B54FF0FF31FFF7F3FFFEE7DF
:1024100070B50C461646002506E0AFF30080214655
:1024200001F8010B01350C46B542F6DB304670BDB4
:1024300070B50C461646002504E014F8010BAFF306
:1024400000800135B542F8DB304670BD4FF0FF30FB
:1024500070474FF400534B600020704701207047D5
:102460000020704710B503460C4A0D490D4800681E
:1024700040B10C4800680344521A934206D8094AF6
:10248000136010BD0748084C0460F2E703F008FB36
:102490000C2303604FF0FF30F3E700BF0000022081
:1024A00000040000FC0B0020D00D0020704700004D
:1024B00008B501220249034803F03AFA08BD00BFFB
:1024C000000C0020100B0020984B93F8823103B9C8
:1024D000704710B586B005AA9549964803F0A0FB51
:1024E000012830D005AA9449924803F099FB0128AD
:1024F00035D005AA91498F4803F092FB012835D0C9
:1025000005AA8F498B4803F08BFB012835D005AA1B
:102510008C49884803F084FB012835D005AA8A49F4
:10252000844803F07DFB012835D005AA87498148FE
:1025300003F076FB012835D10598FEF737FB844B75
:1025400083F87C0005E0824B9A6959690598FFF78A
:10255000D3FA764B002283F8822106B010BD7C4B63
:102560009A6905991869FFF7C7FAF2E7784B059A57
:1025700059691869FFF7C0FAEBE7754B9A6C596C0B
:102580000598FFF7C1FAE4E7714B9A6C0599186C4E
:10259000FFF7BAFADDE76E4B059A596C186CFFF736
:1025A000B3FAD6E705AA6B49624803F039FB012864
:1025B00006D10598FEF7FAFA654B83F87B00C8E769
:1025C00005AA65495B4803F02BFB012830D005AA1A
:1025D0006249584803F024FB012831D004AB05AA16
:1025E0005F49544803F01CFB022831D005AA5D491D
:1025F000504803F015FB012833D005AA5A494D482D
:1026000003F00EFB012830D005AA5849494803F0D1
:1026100007FB012832D100210598FEF797FA40B355
:102620004B4B012283F87920022283F87B2090E72C
:102630000598FFF74FFA464B002283F87B2088E786
:102640000598FFF74DFA424B012283F87B2080E783
:1026500004990598FFF74AFA3D4B022283F87B2044
:1026600077E70598FFF736FA73E70598FFF738FA2A
:102670006FE7374B002283F879206AE705AA3C49C7
:102680002C4803F0CDFA012823D13A4A01AB07CAFE
:1026900083E80700059C00212046FEF74DFA00283C
:1026A0003FF457AF4FF080412046FEF73BFA002839
:1026B0003FF44FAF2046FEF753FA06AB03EB80031F
:1026C00053F8140CFFF706FA214B002283F87B2005
:1026D0003FE705AA2849174803F0A2FA01280DD0C0
:1026E00005AA2649134803F09BFA01280ED1059844
:1026F000FEF75CFA164B83F87A002AE70598FFF795
:10270000EFF9134B012283F87B2022E705AA1C492D
:10271000084803F085FA01287FF41BAF0598FEF7FF
:1027200045FA0B4B83F8790013E700BF000C00203B
:1027300020F50008000D002030F5000840F50008E5
:102740001CF500082CF500083CF500084CF50008C5
:10275000E00900205CF500086CF5000878F5000839
:1027600084F5000894F50008A4F50008B4F5000805
:10277000C8F50008F8F40008D8F50008ECF50008E2
:10278000F4F500082DE9F04FD1B0254C2668A76874
:10279000D4F80480D4F80C90D4F834A0D4F864B001
:1027A000B4F97000FDF7C2FF054694F87B00FDF711
:1027B000B9FFFDF7A9FECDE90E012846FDF7A4FEFD
:1027C000CDE90C015846FDF79FFECDE90A015046C0
:1027D000FDF79AFECDE908014846FDF795FECDE9E3
:1027E00006014046FDF790FECDE904013846FDF7AD
:1027F0008BFECDE902013046FDF786FECDE90001F2
:10280000084A4FF4807110A803F0C6F9642382B21D
:1028100010A9054802F0ECFE51B0BDE8F08F00BFF2
:10282000E009002000F60008100B002008B5114B4D
:102830001B780A2B0CD00F4AB2F880217E2A13D8BD
:102840000C49501CA1F880010A4482F800310BE0C9
:10285000084BB3F880211A44002182F800110122AC
:1028600083F88221A3F8801101220249024803F073
:102870005FF808BD000C0020100B00200D488546B5
:10288000FFF714FE0C480D490D4A002302E0D4580E
:10289000C4500433C4188C42F9D30A4A0A4C0023AA
:1028A00001E013600432A242FBD303F0FFF8FFF70C
:1028B0007DFBFEE70000022000000020BC09002094
:1028C00098FC0008BC090020D00D0020FEE710B5E0
:1028D000032000F031F80F20FFF716FD10B101249E
:1028E000204610BD0446FFF739FCF9E7034A136898
:1028F000034909680B441360704700BF840D002032
:1029000004000020014B1868704700BF840D0020B0
:1029100038B50446FFF7F6FF0546B4F1FF3F02D095
:10292000044B1B681C44FFF7EDFF401BA042FAD389
:1029300038BD00BF04000020074AD36823F4E063D9
:102940001B041B0C000200F4E060034343F0BF6370
:1029500043F40033D360704700ED00E000B5194B3D
:10296000DB68C3F30223C3F1070CBCF1040F28BFDB
:102970004FF0040C03F1040EBEF1060F18D9033B0F
:102980004FF0FF3E0EFA0CFC21EA0C0199400EFAC2
:1029900003F322EA0303194300280BDB0901C9B240
:1029A00000F1604000F5614080F800135DF804FB21
:1029B0000023E5E700F00F000901C9B2024B1954EA
:1029C000F4E700BF00ED00E014ED00E0002807DBB5
:1029D00000F01F02400901239340024A42F82030D0
:1029E000704700BF00E100E0034690F82520D2B216
:1029F000022A09D00422C2630120012283F8252083
:102A0000002283F82420704701680A6822F00E0231
:102A10000A60816C0A6822F480720A6001680A68A0
:102A200022F001020A60426C02F01F01006C0122D8
:102A30008A404260DA6C196D51605A6D42B111687A
:102A400021F4807111609A6DD96D51600020D4E736
:102A50000020D2E708B590F82530DBB2022B09D070
:102A60000423C363012380F82530002280F824204A
:102A7000184608BD0268136823F00E03136002684D
:102A8000136823F001031360826C136823F48073CE
:102A90001360436C03F01F02016C012393404B60F1
:102AA000C36C026D5A60436D33B11A6822F48072B0
:102AB0001A60836DC26D5A60012380F825300023AF
:102AC00080F82430836B13B198470020D1E70020B1
:102AD000CFE7000002681D4B9A422AD01C491D4BCB
:102AE0009A4228D00164D2F8803023F4F813D0F849
:102AF00034C043EA0C43C2F8803001F170034364F0
:102B00000268D2F8803023F07063D0F838C043EA0E
:102B10000C63C2F8803001F1B003836401F5C47323
:102B2000C36401F51873036501F51E7343650B4615
:102B300007E00949D3E701F5D461D3E7002243F860
:102B4000042B01F554729A42F8D87047006800408F
:102B500000A40040006C004050A7004070B54C68D5
:102B6000ECB90D698C6825430C6845EA8445CC694D
:102B70000E6A44EA06648E6934434E693443CE6873
:102B800044EA0644406D03EBC30300EBC30E40F878
:102B90003350CEF804400EF1080E002019E00C6905
:102BA0008D6825430C68254345F08045DFE702EB3F
:102BB000000C9CF803409CF802301B0443EA0463B9
:102BC0009CF8014043EA0423145C23434EF8043B81
:102BD0000430CB68024CE35C8342E8D870BD00BF90
:102BE0002CF60008002800F0E38038B5044690F881
:102BF0005C30D3B12268936923F010039361FFF72F
:102C000081FE054623689A6912F0080F12D0FFF77B
:102C100079FE401B0A28F5D9236E43F00103236691
:102C2000032384F85C30012038BD80F85D30FFF765
:102C3000B1FADFE79A6942F001029A61FFF762FE9A
:102C4000054623689A6912F0010F0DD1FFF75AFE6D
:102C5000401B0A28F5D9236E43F0010323660323A2
:102C600084F85C300120DFE79A6942F002029A6141
:102C70002268504B9A4242D0237C012B45D02268D7
:102C8000936943F040039361637C012B43D0226836
:102C9000936923F480439361A37C012B41D0226884
:102CA000936943F4805393612268936923F44073DA
:102CB000A1680B4393612268936923F0A403936195
:102CC0002268136923F010031361E368012B2ED0EF
:102CD000002B31D0022B54D02268936943F080033B
:102CE00093612268136943F010031361E368032BB7
:102CF00022D12268936943F0200393611CE062684B
:102D0000A3F58063C3F80025B6E72268936923F032
:102D100040039361B8E72268936943F48043936169
:102D2000BAE72268936923F480539361BCE7226871
:102D3000936943F004039361A3695A1EE369013B5D
:102D40001B0243EA4263226A013A13436269013A71
:102D5000216843EA0243CB61A368B3F5407F16D0F4
:102D60002268D2F8C030E16B0B43C2F8C030204675
:102D7000FFF7B0FE0020A0652066012384F85C30D8
:102D800052E72268936943F020039361D4E7A36A72
:102D9000013BE26A013A43EA0223226B013A43EA29
:102DA0000213626A013A216843EA0243CB60D7E723
:102DB000012070470064004090F85C30013BDBB2BA
:102DC000012B05D9036E43F002030366012070470F
:102DD0000B687BB98A68CB68DB0643EA82730A69B1
:102DE00043EA02434A691343026C496842F82130BE
:102DF00000207047CA680B6943EA42724B69D1F8F8
:102E000008C043EA8C73406C496800EBC10C40F881
:102E10003120CCF80430EBE790F85C30DBB2012BCA
:102E200005D0036E43F004030366012070470223BC
:102E300080F85C300268936923F0010393610023FA
:102E400003661846704738B5044690F85C30DBB22C
:102E5000022B1BD10368D3F8C40010F4001F05D067
:102E6000236E43F400732366012014E0D3F8C450AA
:102E7000C5F301452B462046FFF770FE226801236B
:102E8000AB40C2F8CC30A365002004E0036E43F0F1
:102E900008030366012038BD70B590F85C40E4B2C9
:102EA000022C40F0A28040290BD00468D4F898503E
:102EB00015F00F0F2DD1036E43F4807303660120CC
:102EC00098E00468D4F8905015F00F0F05D1036E08
:102ED00043F48073036601208CE0D4F89050C5F36E
:102EE000006C15F0807F08D0D4F88050C5F3402CDA
:102EF00015F4007F01D04FF0010CD4F89040C4F3DA
:102F000001240CEB0405846C05EBC50C04EBCC0C24
:102F10001AE0D4F89850C5F3006C15F0807F08D003
:102F2000D4F88050C5F3002C15F4807F01D04FF009
:102F3000010CD4F89840C4F301240CEB0405C46CD4
:102F400005EBC50C04EBCC0CDCF8004004F080442D
:102F5000546074BBDCF80040C4F38A441460DCF8AD
:102F6000004004F000549460DCF8004004F0004499
:102F70001461BCF80440D461BCF8064004F00F04AE
:102F8000D460DCF8044004F480145461DCF804409C
:102F900004F4001494619CF8074004F07F04146268
:102FA000DCF80440E40F54620CF1080E4FF0000C02
:102FB0000BE0DCF8004024F060441460CFE71EF81A
:102FC0000C4003F80C400CF1010C0B4CD668A45DCE
:102FD0006445F4D8402904D00368C3F89C5000200D
:102FE00008E00368C3F89450F9E7036E43F0080360
:102FF0000366012070BD00BF2CF6000890F85C301D
:10300000013BDBB2012B05D9036E43F002030366DB
:103010000120704770B40468A36D11F0070602D058
:1030200013F0010F23D011F0380F02D013F0020F6C
:103030001DD011F4E07F02D013F0040F17D011F46B
:10304000F05F02D013F0080F11D011F4604F02D0DE
:1030500013F0100F0BD011F4403F02D013F0200FEB
:1030600005D011F47C0F06D013F0400F03D1E56DAD
:1030700045F00105E56516B113F0010F23D111F0FC
:10308000380F02D013F0020F1DD111F4E07F02D0EF
:1030900013F0040F17D111F4F05F02D013F0080FF2
:1030A00011D111F4604F02D013F0100F0BD111F4B5
:1030B000403F02D013F0200F05D111F47C0F07D050
:1030C00013F0400F04D00468E36D43F00203E3659E
:1030D00011F0800F05D00468D4F8DC301343C4F835
:1030E000DC3011F4807F05D00468D4F8E0301A4356
:1030F000C4F8E0200268536D19435165002070BC8C
:103100007047704770477047704770477047704707
:103110007047704770472DE9F84F044603681A6DF1
:1031200002F4E05A5A6D0AEA020A1A6D02F007091F
:103130005A6D09EA02091A6D02F038085A6D08EA58
:1031400002081E6D06F471065A6D16401F6D07F4D5
:1031500060275A6D1740D3F854B01D6D15F0400F1D
:1031600002D01BF0400F41D115F4807F02D01BF438
:10317000807F40D1BAF1000F4AD1B9F1000F4FD191
:10318000B8F1000F54D115F4007F02D01BF4007F7A
:1031900056D115F0800F02D01BF0800F58D115F4D6
:1031A000005F02D01BF4005F5ED115F4004F02D027
:1031B0001BF4004F60D115F4804F0AD01BF4804FF0
:1031C00007D023684FF480421A65236E43F08003D2
:1031D0002366002F58D126B123681E65236E1E4337
:1031E0002666236E002B56D1BDE8F88F40221A6563
:1031F000FFF78EFFB8E72368D3F8D810D3F8E020A4
:103200004FF48070186511402046FFF77EFFB1E74C
:103210002368C3F850A051462046FFF772FFACE781
:103220002368C3F8509049462046FEF775FDA7E78E
:103230002368C3F8508041462046FFF763FFA2E7AA
:1032400023684FF400721A652046FFF75CFFA0E781
:103250002368D3F8D410D3F8DC20802018651140FF
:103260002046FFF751FF9AE723684FF400521A6592
:103270002046FFF74BFF98E723684FF400421A659A
:103280002046FFF744FF96E723681F65394620462E
:10329000FFF740FF9FE72046FFF73BFFA4E7000052
:1032A00070B582B0002365E085685E000324B440F9
:1032B00025EA0405CC68B4402C438460446824EAC1
:1032C0000C0C4C68C4F300149C4044EA0C044460A9
:1032D00061E0DD08083550F8256003F007044FEA87
:1032E000840C0F2404FA0CF426EA040E0C6904FA88
:1032F0000CF444EA0E0440F8254063E0052400E0A5
:10330000002404FA0EF42C430CF1020C574D45F83E
:103310002C40574CA568D44325EA0206D1F804C0D6
:103320001CF4801F01D042EA0506514DAE60ED68E5
:1033300004EA0506D1F804C01CF4001F01D042EADB
:1033400005064B4DEE606D6804EA0506D1F804C031
:103350001CF4003F01D042EA0506454D6E602D6821
:103360002C404E6816F4803F01D042EA0504404AE2
:10337000146001330A6832FA03F474D04FF0010C80
:103380000CFA03FC1CEA0202F3D04C6804F00304BC
:10339000013C012C88D94C6804F00304032C0CD0A8
:1033A000C4685D004FF0030C0CFA05FC24EA0C0C19
:1033B0008C68AC4044EA0C04C4604C6804F003041C
:1033C000022C86D004684FEA430E4FF0030C0CFA2F
:1033D0000EFC24EA0C0C4C6804F0030404FA0EF40E
:1033E00044EA0C0404604C6814F4403FC1D0214C02
:1033F000256E45F001052566246E04F00104019454
:10340000019C4FEA930C0CF10205184C54F825501E
:1034100003F003044FEA840E0F2404FA0EF425EAA5
:103420000405B0F1904F3FF46BAF134CA04212D0A3
:1034300004F58064A04210D004F58064A0420ED050
:1034400004F58064A0420CD004F58064A0423FF4EF
:1034500055AF062455E7012453E7022451E703241E
:103460004FE704244DE702B070BD00BF00000140EB
:103470000004014000100240000400480AB18161CC
:10348000704781627047436901EA030221EA030140
:1034900041EA024181617047002836D13E4B1B68EA
:1034A00003F4C063B3F5806F08D03B4AD2F8803094
:1034B00023F48073C2F8803000207047364AD2F877
:1034C000803023F48073C2F88030136823F4C06323
:1034D00043F400731360314B1B68322202FB03F389
:1034E0002F4AA2FB03239B0C013300E0013B2A4A35
:1034F000526912F4806F01D0002BF7D1264B5B6923
:1035000013F4806F44D100207047B0F5007F08D0DD
:10351000214A136823F4C06343F4806313600020DE
:1035200070471D4B1B6803F4C063B3F5806F08D070
:10353000194AD2F8803043F48073C2F880300020FA
:103540007047154AD2F8803043F48073C2F8803057
:10355000136823F4C06343F4007313600F4B1B68BC
:10356000322202FB03F30E4AA2FB03239B0C01331E
:1035700000E0013B084A526912F4806F01D0002B31
:10358000F7D1054B5B6913F4806F03D100207047BE
:1035900003207047032070470070004000000020A7
:1035A00083DE1B43024A936843F480439360704771
:1035B00000700040124BDA6802F00302D868C0F3D2
:1035C0000310431C032A11D00E48B0FBF3F00C4B40
:1035D000DB68C3F3062303FB00F0094BDB68C3F38E
:1035E000416301335B00B0FBF3F070470648B0FB6A
:1035F000F3F0034BDB68C3F3062303FB00F0ECE7B7
:10360000001002400024F400006CDC02002800F0EE
:103610004F8270B582B00446036813F0010F37D0B3
:10362000A44A936803F00C03D26802F003020C2B47
:1036300023D0082B23D06368B3F5803F4ED0B3F579
:10364000A02F51D09B4B1A6822F480321A601A685E
:1036500022F480221A606368002B52D0FFF752F9DF
:103660000546944B1B6813F4003F11D1FFF74AF94C
:10367000401B6428F5D9032023E2032AD9D18D4BBE
:103680001B6813F4003F03D06368002B00F0128224
:10369000236813F0020F5DD0864A936803F00C0391
:1036A000D26802F003020C2B3AD0042B3AD0E36824
:1036B000002B75D07F4A136843F480731360FFF7C3
:1036C00021F905467B4B1B6813F4806F5FD1FFF730
:1036D00019F9401B0228F5D90320F2E1754A136855
:1036E00043F480331360B6E703F18043A3F53C3322
:1036F0001A6842F480221A601A6842F480321A6012
:10370000A9E7FFF7FFF805466A4B1B6813F4003F73
:10371000BED0FFF7F7F8401B6428F5D90320D0E1AD
:10372000022AC2D1634B1B6813F4806F03D0E36895
:10373000002B00F0C1815F4A536823F0FE432169EA
:1037400043EA016353605C4B1868FEF7DDFD002817
:1037500040F0B481236813F0080F4CD063699BB329
:10376000544AD2F8943043F00103C2F89430FFF782
:10377000C9F805464F4BD3F8943013F0020F3AD1F5
:10378000FFF7C0F8401B0228F4D9032099E1494A09
:10379000536823F0FE43216943EA01635360D9E78C
:1037A000444A136823F480731360FFF7ABF80546AF
:1037B000404B1B6813F4806FCCD0FFF7A3F8401B7D
:1037C0000228F5D903207CE13A4AD2F8943023F05C
:1037D0000103C2F89430FFF795F80546354BD3F84E
:1037E000943013F0020F06D0FFF78CF8401B02282C
:1037F000F4D9032065E1236813F0040F00F0818001
:103800002C4B9B6D13F0805F36D12A4B9A6D42F0A2
:1038100080529A659B6D03F080530193019B0125B3
:10382000264B1B6813F4807F28D0A368012B39D066
:10383000052B45D01F4BD3F8902022F00102C3F88E
:103840009020D3F8902022F00402C3F89020A368BF
:10385000002B43D0FFF756F80646164BD3F89030AE
:1038600013F0020F4CD1FFF74DF8801B41F2883363
:103870009842F2D9032024E10025D1E70F4A1368CA
:1038800043F480731360FFF73DF806460B4B1B684B
:1038900013F4807FC9D1FFF735F8801B0228F5D9D2
:1038A00003200EE1034AD2F8903043F00103C2F83E
:1038B0009030CCE70010024008000020007000406B
:1038C000884BD3F8902042F00402C3F89020D3F83C
:1038D000902042F00102C3F89020B8E7FFF712F8F9
:1038E0000646804BD3F8903013F0020F08D0FFF754
:1038F00009F8801B41F288339842F2D90320E0E0B6
:10390000E5B9236813F0200F35D0A369E3B1754AF8
:10391000D2F8983043F00103C2F89830FEF7F2FF76
:103920000546704BD3F8983013F0020F23D1FEF701
:10393000E9FF401B0228F4D90320C2E0694A936DD5
:1039400023F080539365DCE7664AD2F8983023F081
:103950000103C2F89830FEF7D5FF0546614BD3F856
:10396000983013F0020F06D0FEF7CCFF401B022860
:10397000F4D90320A5E0E369002B00F0A180594AA7
:10398000926802F00C020C2A64D0022B13D0554A24
:10399000136823F080731360FEF7B4FF0446514BA5
:1039A0001B6813F0007F4ED0FEF7ACFF001B02280F
:1039B000F5D9032085E04B4A136823F08073136028
:1039C000FEF7A0FF0546474B1B6813F0007F06D0AB
:1039D000FEF798FF401B0228F5D9032071E0414A09
:1039E000D36841491940236A606A013843EA0013E9
:1039F000A06A43EA0023206B4008013843EA4053A1
:103A0000606B4008013843EA4063E06A43EAC06300
:103A10000B43D360136843F080731360D36843F0A3
:103A20008073D360FEF76EFF04462E4B1B6813F0C5
:103A3000007F06D1FEF766FF001B0228F5D90320A0
:103A40003FE000203DE0274AD168284B0B40D3607F
:103A5000002036E0012B36D0224BDB6803F0030157
:103A6000226A914231D103F0F002616A0139B2EB6E
:103A7000011F2CD103F4FE42A16AB2EB012F28D121
:103A800003F07842E16AB2EBC16F24D103F4C001C4
:103A9000226B5208013AB1EB425F1ED103F0C063C2
:103AA000626B5208013AB3EB426F18D1002008E074
:103AB00001207047012004E0012002E0012000E025
:103AC000002002B070BD0120FBE70120F9E70120D2
:103AD000F7E70120F5E70120F3E70120F1E70120F6
:103AE000EFE700BF001002400C809F01FCFFEEFEDC
:103AF0001E4B9B6803F00C03042B33D01B4B9B68BD
:103B000003F00C03082B2FD0184B9B6803F00C0319
:103B10000C2B01D000207047144BDA6802F003022E
:103B2000D868C0F30310431C032A11D01048B0FB1F
:103B3000F3F00E4BDB68C3F3062303FB00F00B4BE3
:103B4000DB68C3F3416301335B00B0FBF3F0704704
:103B50000848B0FBF3F0054BDB68C3F3062303FB17
:103B600000F0ECE70248704702487047001002403E
:103B70000024F400006CDC02002800F0E680F8B5B8
:103B80000C460546744B1B6803F00F038B420BD2A7
:103B9000714A136823F00F030B431360136803F09B
:103BA0000F038B4240F0D3802E6816F001065FD0E1
:103BB0006B68032B2FD0022B4DD0684B1B6813F47E
:103BC000806F00F0C680FFF793FF654B98424DD998
:103BD000624A936823F0F00343F0800393608026E9
:103BE0005E4A936823F0030369680B439360FEF712
:103BF00089FE0746594B9B6803F00C036A68B3EBD8
:103C0000820F35D0FEF77EFEC01B41F2883398420A
:103C1000F0D9032078E0514B1B6813F0007F01D1ED
:103C2000012071E0FFF7C6FC4D4B98421AD94B4B6F
:103C30009B6813F0F00F05D02E6816F00206CFD067
:103C4000AB688BB9454A936823F0F00343F08003D7
:103C500093608026C4E7414B1B6813F4003FB2D148
:103C6000012051E00026BBE70026B9E70026B7E7B0
:103C70002B6813F0020F48D013F0040F04D0374A1A
:103C8000936843F4E06393602B6813F0080F06D049
:103C9000324A936823F47C5343F4E06393602F4AE1
:103CA000936823F0F003A9680B4393602A4B1B68C9
:103CB00003F00F03A34230D82B6813F0040F06D093
:103CC000264A936823F4E063E9680B4393602B680A
:103CD00013F0080F07D0214A936823F46053296931
:103CE00043EAC1039360FFF703FF1C4B9B68C3F3D8
:103CF00003131C4AD35C03F01F03D8401A4B18600F
:103D00001A4B1868FEF700FBF8BD802ECED1134A7F
:103D1000936823F0F0039360C8E70F4A136823F019
:103D20000F0323431360FEF7EDFD06460A4B1B68A5
:103D300003F00F03A342BFD0FEF7E4FD801B41F266
:103D400088339842F2D90320DEE701207047012032
:103D5000DAE70120D8E700BF00200240001002404F
:103D600000B4C40404F5000800000020080000208E
:103D7000014B1868704700BF0000002008B5FFF72E
:103D8000F7FF054B9B68C3F30223044AD35C03F09F
:103D90001F03D84008BD00BF0010024014F5000802
:103DA00008B5FFF7E5FF054B9B68C3F3C223044A40
:103DB000D35C03F01F03D84008BD00BF00100240D1
:103DC00014F500080F2303600B4B9A6802F00302FE
:103DD00042609A6802F0F00282609A6802F4E0623F
:103DE000C2609B68DB0803F4E0630361034B1B685C
:103DF00003F00F030B6070470010024000200240E8
:103E0000F0B583B00446036813F4002F6ED0354B31
:103E10009B6D13F0805F1ED1324B9A6D42F0805241
:103E20009A659B6D03F080530193019B01262E4AF6
:103E3000136843F480731360FEF764FD05462A4B54
:103E40001B6813F4807F08D1FEF75CFD401B02283D
:103E5000F5D9032502E00026E9E7002545BB214B03
:103E6000D3F8903013F4407315D0226D9A4212D0DB
:103E70001C4AD2F8903023F44073D2F8901041F4E9
:103E80008031C2F89010D2F8901021F48031C2F83D
:103E90009010C2F8903013F0010F10D145B9114ABB
:103EA000D2F8903023F44073216D0B43C2F8903068
:103EB000EEB10C4A936D23F08053936517E0FEF743
:103EC00021FD0746074BD3F8903013F0020FE5D1E0
:103ED000FEF718FDC01B41F288339842F2D9032542
:103EE000DCE700BF0010024000700040002523689E
:103EF00013F0010F08D09F4AD2F8883023F0030353
:103F000061680B43C2F88830236813F0020F08D0B1
:103F1000984AD2F8883023F00C03A1680B43C2F80A
:103F20008830236813F0040F08D0924AD2F8883002
:103F300023F03003E1680B43C2F88830236813F0A4
:103F4000080F08D08B4AD2F8883023F0C0032169CB
:103F50000B43C2F88830236813F0100F08D0854A4D
:103F6000D2F8883023F4407361690B43C2F888307B
:103F7000236813F0200F08D07E4AD2F8883023F44B
:103F80004063A1690B43C2F88830236813F0400FE7
:103F900008D0784AD2F8883023F44053E1690B43C3
:103FA000C2F88830236813F0800F08D0714AD2F825
:103FB000883023F44043216A0B43C2F888302368D9
:103FC00013F4807F08D06B4AD2F8883023F4403352
:103FD000616A0B43C2F88830236813F4003F08D0AD
:103FE000644AD2F89C3023F00303A16A0B43C2F861
:103FF0009C30236813F4007F08D05E4AD2F88830E2
:1040000023F44023E16A0B43C2F88830236813F499
:10401000806F0CD0574AD2F8883023F44013216BBC
:104020000B43C2F88830236BB3F5801F79D0236827
:1040300013F4006F0CD04F4AD2F8883023F44003B9
:10404000616B0B43C2F88830636BB3F5800F6DD0A2
:10405000236813F4805F0CD0464AD2F8883023F0EE
:104060004073A16B0B43C2F88830A36BB3F1807F20
:1040700061D0236813F4005F0CD03E4AD2F8883038
:1040800023F04063E16B0B43C2F88830E36BB3F17C
:10409000006F55D0236813F4804F0CD0354AD2F806
:1040A000883023F04063216C0B43C2F88830236CC6
:1040B000B3F1006F49D0236813F4004F0CD02D4AA0
:1040C000D2F8883023F04053616C0B43C2F888303B
:1040D000636CB3F1805F3DD0236813F4803F0CD054
:1040E000244AD2F8883023F04043A16C0B43C2F835
:1040F0008830A36CB3F1804F31D0236813F4802F44
:104100000CD01C4AD2F89C3023F44013E16C0B43D2
:10411000C2F89C30E36CB3F5001F25D0284603B0ED
:10412000F0BDD36843F48013D36080E7D36843F4D1
:104130008013D3608CE7D36843F48013D36098E78F
:10414000D36843F48013D360A4E7D36843F48013A7
:10415000D360B0E7D36843F48033D360BCE7D3685F
:1041600043F48033D360C8E7D36843F48013D3604B
:10417000D4E700BF0010024010B4036A046A24F0C0
:1041800001040462846924F0F00C4CEA021223F06A
:104190000A030B438261036210BC704710B4036AC8
:1041A000046A24F010040462846924F4704C4CEA1C
:1041B000023223F0A00343EA01138261036210BCC0
:1041C0007047836823F4401323F070030B4343F0DC
:1041D000070383607047000090F83D30DBB2012B8D
:1041E0003AD1022380F83D300268D36843F00103DE
:1041F000D36003681B4A934220D0B3F1804F1DD097
:10420000A2F59432934219D002F58062934215D000
:1042100002F58062934211D002F5943293420DD0A0
:1042200002F54062934209D002F58052934205D0D4
:104230001A6842F001021A600020704799680A4A21
:104240000A40062A0AD0B2F5803F09D01A6842F027
:1042500001021A600020704701207047002070475B
:1042600000207047002C0140070001007047704794
:104270007047704770B505460368DE681C6914F026
:10428000020F10D016F0020F0DD06FF002021A616B
:104290000123037703689B6913F0030F7CD0FFF7BA
:1042A000E6FF00232B7714F0040F12D016F0040F52
:1042B0000FD02B686FF004021A6102232B772B6852
:1042C0009B6913F4407F6DD02846FFF7D0FF002391
:1042D0002B7714F0080F12D016F0080F0FD02B68B0
:1042E0006FF008021A6104232B772B68DB6913F047
:1042F000030F5ED02846FFF7BAFF00232B7714F098
:10430000100F12D016F0100F0FD02B686FF01002A4
:104310001A6108232B772B68DB6913F4407F4FD099
:104320002846FFF7A4FF00232B7714F0010F02D0DB
:1043300016F0010F4BD114F4025F02D016F0800F7B
:104340004DD114F4807F02D016F0800F4FD114F0BD
:10435000400F02D016F0400F51D114F0200F02D0C0
:1043600016F0200F53D114F4801F02D016F4801FD2
:1043700055D114F4001F02D016F4001F57D114F4C5
:10438000800F02D016F4800F59D114F4000F02D020
:1043900016F4000F5BD170BDFFF768FF2846FFF7EA
:1043A00067FF7EE72846FFF761FF2846FFF760FFBB
:1043B0008DE72846FFF75AFF2846FFF759FF9CE78D
:1043C0002846FFF753FF2846FFF752FFABE72B685D
:1043D0006FF001021A612846FDF7B2FCABE72B68CB
:1043E0006FF402521A61284600F0EFF9A9E72B6832
:1043F0006FF480721A61284600F0E8F9A7E72B688D
:104400006FF040021A612846FFF733FFA5E72B68DB
:104410006FF020021A61284600F0D6F9A3E72B6856
:104420006FF480121A61284600F0D1F9A1E72B68D9
:104430006FF400121A61284600F0CAF99FE72B6852
:104440006FF480021A61284600F0C3F99DE72B68DB
:104450006FF400021A61284600F0BCF99BE70000E7
:1044600003683A4A904216D0B0F1804F13D0A2F5BB
:10447000943290420FD002F5806290420BD002F548
:104480008062904207D002F59432904203D002F548
:10449000E052904203D123F070034A6813432B4A41
:1044A000904222D0B0F1804F1FD0A2F594329042BA
:1044B0001BD002F58062904217D002F580629042D4
:1044C00013D002F5943290420FD002F54062904230
:1044D0000BD002F58062904207D002F580629042D4
:1044E00003D002F50062904203D123F44073CA68FE
:1044F000134323F080034A69134303608B68C3624C
:104500000B688362114B984213D003F50063984205
:104510000FD003F5406398420BD003F580639842B7
:1045200007D003F58063984203D003F500639842F7
:1045300001D10B69036301234361036913F0010F88
:1045400003D0036923F0010303617047002C01408D
:1045500060B310B5044690F83D3013B3022384F8DD
:104560003D30214651F8040BFFF77AFF012384F810
:10457000483084F83E3084F83F3084F8403084F886
:10458000413084F8423084F8433084F8443084F871
:10459000453084F8463084F8473084F83D300020B8
:1045A00010BD80F83C30FDF745FED7E7012070478D
:1045B00010B4846824F47F4C42EA03220A4342EA9E
:1045C0000C02826010BC704790F83C30012B00F068
:1045D0009B8010B50446012380F83C30022380F80C
:1045E0003D3002689068494B034093600B68702B24
:1045F00061D031D8502B78D00CD9602B2AD1CA6821
:1046000049682068FFF7CAFD60212068FFF7D9FDDF
:10461000002038E0402B0AD1CA6849682068FFF7BB
:10462000ABFD40212068FFF7CCFD00202BE067D8D0
:10463000202B07D003D9302B04D0012023E00BB16D
:10464000102B05D119462068FFF7BBFD00201AE0AA
:10465000012018E0012016E0B3F5005F38D00ED934
:104660002B4A9342EED015D92A4A9342EAD010320F
:104670009342E7D0203A9342E4D0012003E0B3F51F
:10468000805F3FD10020012384F83D30002384F86F
:104690003C3010BD203A9342D4D004D91E4A9342F4
:1046A000D0D00120EFE7B3F5801FCBD0B3F1101FBE
:1046B000C8D00120E7E7CB684A6889682068FFF71F
:1046C00077FF2268936843F0770393600020DAE76E
:1046D000CB684A6889682068FFF76AFF2268936898
:1046E00043F4804393600020CDE7CA68496820689E
:1046F000FFF742FD50212068FFF763FD0020C2E76D
:104700000120C0E70120BEE7022070478800CEFFED
:1047100040001000600010003000100090F83C30A5
:10472000012B4CD030B4012380F83C30022380F8B8
:104730003D30026853689468224DAA4207D005F5BF
:104740000065AA4203D005F5E055AA4203D123F43F
:1047500070034D682B4323F0007323F070030D6842
:104760002B4353600368174A93421AD0B3F1804F2A
:1047700017D0A2F59432934213D002F5806293428F
:104780000FD002F5806293420BD002F5943293422F
:1047900007D002F54062934203D002F58052934263
:1047A00004D124F080048A6814439C60012380F8BB
:1047B0003D30002380F83C30184630BC7047022062
:1047C000704700BF002C014070477047704770472A
:1047D000704770477047026852E8003F23F49073B7
:1047E00042E800310029F6D1026802F1080353E8DB
:1047F000003F23F0805323F00103083242E80031E8
:104800000029F1D1C36E012B06D02023C0F88C30D3
:104810000023C36643677047026852E8003F23F0F5
:10482000100342E800310029F6D1EEE7704708B5E1
:10483000026852E8003F23F0400342E800310029BB
:10484000F6D12023C0F8883000238367FFF7EEFFFE
:1048500008BD704708B5806A0023A0F85E30A0F854
:104860005630FFF7F6FF08BD7047000070B50446EC
:104870000168CB6908688D6840F60F021A4008D1BC
:1048800013F0200F05D010F0200F34D115F0805F09
:1048900031D12AB1994A2A4033D1994E304230D190
:1048A000E26E012A00F0C68013F4801F03D015F4D5
:1048B000800F40F0658113F0800F07D010F0800F5B
:1048C00040F0658115F4000F40F0618113F0400F56
:1048D00003D010F0400F40F0618113F4000F03D0BB
:1048E00010F0804F40F05E8113F0807F02D00028EE
:1048F000C0F25C8170BD636F002BFBD020469847EF
:10490000F8E713F0010F09D010F4807F06D00126DC
:104910000E62D4F890103143C4F8901013F0020FD7
:104920000BD015F0010F08D0216802260E62D4F8D2
:10493000901041F00401C4F8901013F0040F0BD054
:1049400015F0010F08D0216804260E62D4F89010EB
:1049500041F00201C4F8901013F0080F0BD010F0D2
:10496000200F00D13AB1226808211162D4F89020BA
:104970000A43C4F8902013F4006F0CD010F0806F3D
:1049800009D022684FF400611162D4F8902042F0FF
:104990002002C4F89020D4F89020002AAAD013F066
:1049A000200F09D010F0200F02D115F0805F03D046
:1049B000636F0BB120469847D4F8902023689B681A
:1049C00013F0400F02D112F0280F2CD02046FFF731
:1049D00002FF23689B6813F0400F20D0226802F189
:1049E000080353E8003F23F04003083242E8003157
:1049F0000029F3D1D4F880306BB1424A9A63D4F8DD
:104A00008000FEF727F800283FF474AFD4F8800048
:104A1000836B98476EE72046FFF71BFF6AE7204647
:104A2000FFF717FF66E72046FFF713FF0023C4F8E0
:104A300090305FE713F0100F3FF436AF10F0100F17
:104A40003FF432AF10230B6223689B6813F0400FD2
:104A50005AD0D4F8802013685B689BB2002B3FF4D7
:104A600049AFB4F85C1099427FF644AFA4F85E30C9
:104A700013681B6813F0200F32D1226852E8003F00
:104A800023F4807342E800310029F6D1226802F154
:104A9000080353E8003F23F00103083242E80031E5
:104AA0000029F3D1226802F1080353E8003F23F004
:104AB0004003083242E800310029F3D12023C4F832
:104AC0008C300023E366226852E8003F23F0100395
:104AD00042E800310029F6D1D4F88000FDF784FFC8
:104AE00002232367B4F85C10B4F85E309BB2C91A95
:104AF00089B22046FFF7B8FEFCE600BF01000010B7
:104B00002001000455480008B4F85C10B4F85E3089
:104B10009BB2C91A89B2B4F85E309BB2002B3FF445
:104B2000E9AE00293FF4E6AE226852E8003F23F4E4
:104B3000907342E800300028F6D1226802F10803A1
:104B400053E8003F23F0805323F00103083242E88A
:104B500000300028F1D12023C4F88C300023E36614
:104B60006367226852E8003F23F0100342E80030F8
:104B70000028F6D1022323672046FFF775FEB9E629
:104B80004FF480130B62204600F01EFFB2E6A36FC5
:104B9000002B3FF4AFAE20469847ABE62046FFF728
:104BA00046FEA7E6204600F011FFA3E6204600F0EF
:104BB0000CFF9FE608B5B0F86030D0F88C20222AB0
:104BC00005D00268936943F00803936108BD026849
:104BD000516ADBB2826D0B401370836D01338365C4
:104BE000B0F85E309BB2013B9BB2A0F85E30B0F8EB
:104BF0005E309BB2002BE9D1026852E8003F23F4FB
:104C0000907342E800310029F6D1026802F10803EE
:104C100053E8003F23F00103083242E80031002945
:104C2000F3D12023C0F88C30002343670367036867
:104C3000164A93420CD05B6813F4000F08D0026848
:104C400052E8003F23F0806342E800310029F6D1AA
:104C5000C36E012B16D10023C366026852E8003FE1
:104C600023F0100342E800310029F6D10368DA6925
:104C700012F0100F01D010221A62B0F85C10FFF78A
:104C8000F3FDA3E7FDF750F8A0E700BF0080004068
:104C900008B5B0F86020D0F88C30222B05D002681F
:104CA000936943F00803936108BD03685B6A816DF3
:104CB00013400B80836D02338365B0F85E309BB286
:104CC000013B9BB2A0F85E30B0F85E309BB2002B87
:104CD000EAD1026852E8003F23F4907342E80031C1
:104CE0000029F6D1026802F1080353E8003F23F0DF
:104CF0000103083242E800310029F3D12023C0F833
:104D00008C300023436703670368164A93420CD034
:104D10005B6813F4000F08D0026852E8003F23F0EC
:104D2000806342E800310029F6D1C36E012B16D111
:104D30000023C366026852E8003F23F0100342E8F4
:104D400000310029F6D10368DA6912F0100F01D0A2
:104D500010221A62B0F85C10FFF786FDA4E7FCF79A
:104D6000E3FFA1E7008000402DE9F843B0F8606060
:104D70000368DD69D3F80090D3F80880D0F88C2060
:104D8000222A05D09A6942F008029A61BDE8F883A8
:104D90000446B0F8687008E0D4F89030002B4CD18D
:104DA000B4F85E309BB2002B4ED0002F00F09A80FA
:104DB00015F0200F00F096802368596AF3B2A26DB7
:104DC0000B401370A36D0133A365B4F85E309BB242
:104DD000013B9BB2A4F85E302368DD6915F0070F34
:104DE000DED015F0010F09D019F4807F06D0012222
:104DF0001A62D4F890301343C4F8903015F0020FC3
:104E00000BD018F0010F08D0236802221A62D4F8E0
:104E1000903043F00403C4F8903015F0040FBBD079
:104E200018F0010FB8D0236804221A62D4F8903029
:104E300043F00203C4F89030AEE72046FFF709FDC7
:104E40000023C4F89030ABE7226852E8003F23F417
:104E5000807342E800310029F6D1226802F108038C
:104E600053E8003F23F0805323F00103083242E867
:104E700000310029F1D12023C4F88C30002363676E
:104E800023672368294A934203D05B6813F4000F19
:104E900006D1E36E012B0DD02046FCF745FF84E7D9
:104EA000226852E8003F23F0806342E80031002985
:104EB000F6D1EEE70023E366226852E8003F23F0D4
:104EC000100342E800310029F6D12368DA6912F0B4
:104ED000100F01D010221A62B4F85C102046FFF7C0
:104EE000C3FC62E7B4F85E309BB2002B3FF44EAFD8
:104EF000B4F868209A427FF649AF226802F10803AD
:104F000053E8003F23F08053083242E80031002983
:104F1000F3D1074B6367226852E8003F43F0200358
:104F200042E800310029F6D130E700BF00800040A0
:104F3000B54B00082DE9F843B0F860600368DD69FF
:104F4000D3F80090D3F80880D0F88C20222A05D01E
:104F50009A6942F008029A61BDE8F8830446B0F805
:104F6000687008E0D4F89030002B4BD1B4F85E3074
:104F70009BB2002B4DD0002F00F0998015F0200F30
:104F800000F0958023685B6AA26D33401380A36DA7
:104F90000233A365B4F85E309BB2013B9BB2A4F828
:104FA0005E302368DD6915F0070FDFD015F0010FC3
:104FB00009D019F4807F06D001221A62D4F890300B
:104FC0001343C4F8903015F0020F0BD018F0010F06
:104FD00008D0236802221A62D4F8903043F0040308
:104FE000C4F8903015F0040FBCD018F0010FB9D000
:104FF000236804221A62D4F8903043F00203C4F804
:105000009030AFE72046FFF724FC0023C4F890302F
:10501000ACE7226852E8003F23F4807342E8003195
:105020000029F6D1226802F1080353E8003F23F07B
:10503000805323F00103083242E800310029F1D106
:105040002023C4F88C300023636723672368294A30
:10505000934203D05B6813F4000F06D1E36E012B7B
:105060000DD02046FCF760FE85E7226852E8003F3D
:1050700023F0806342E800310029F6D1EEE70023F7
:10508000E366226852E8003F23F0100342E8003153
:105090000029F6D12368DA6912F0100F01D010222E
:1050A0001A62B4F85C102046FFF7DEFB63E7B4F841
:1050B0005E309BB2002B3FF44FAFB4F868209A42A9
:1050C0007FF64AAF226802F1080353E8003F23F05D
:1050D0008053083242E800310029F3D1064B636760
:1050E000226852E8003F43F0200342E800310029E3
:1050F000F6D131E700800040914C000870B50446BD
:10510000016883680269134342691343C269134308
:105110000868964A024013430B602268536823F4E0
:105120004053E1680B435360A1692268904B9A4257
:1051300001D0236A1943936823F06E4323F430634C
:105140000B4393602268D36A23F00F03616A0B4319
:10515000D3622368874A934210D0874A934221D072
:10516000864A934237D0864A93425CD0854A93421E
:105170006BD07F4A93427DD010223AE002F558422C
:10518000D2F8882002F00302032A09D8DFE802F0EF
:105190000204870601222CE004222AE0082228E0EB
:1051A000102226E002F5E632D2F8882002F00C0246
:1051B0000C2A0ED8DFE802F0070D0D0D090D0D0DBC
:1051C000750D0D0D0B00002213E0042211E00822E2
:1051D0000FE010220DE002F5E432D2F8882002F050
:1051E0003002202A5FD01AD8002A5ED0102A5ED161
:1051F00004225F498B4276D0E069B0F5004F00F0A1
:10520000C980082A00F23481DFE812F0F7001901A2
:10521000F50032011C013201320132011F01302A36
:1052200047D10822E5E702F5E232D2F8882002F001
:10523000C002802A3FD004D8FAB3402A3FD10422CA
:10524000D7E7C02A3DD10822D3E702F5E032D2F8F1
:10525000882002F44072B2F5007F34D005D8A2B3A2
:10526000B2F5807F33D10422C3E7B2F5407F30D15D
:105270000822BEE702F5C832D2F8882002F4406264
:10528000B2F5006F27D005D83AB3B2F5806F26D1BA
:105290000422AEE7B2F5406F23D10822A9E702222B
:1052A000A7E70222A5E70222A3E70022A1E7102236
:1052B0009FE710229DE702229BE7002299E7102238
:1052C00097E7102295E7022293E7002291E7102248
:1052D0008FE710228DE702228BE7002289E7102258
:1052E00087E7102285E7082A00F2B280DFE802F0A3
:1052F00008B03BB038B0B0B005004FF4004004E057
:10530000FEF73CFD002800F0A580626A1E4B33F8D2
:105310001220B0FBF2F3656805EB4501994200F2FB
:105320009B80B3EB053F00F299800026334631465F
:10533000FBF75CFC090241EA106100026B08C0182F
:105340002A46334641F10001FBF750FCA0F54072BC
:105350000E4B9A4200F284802368D860304665E0A4
:10536000FEF7C6FBCEE70A48CFE700BFF369FFCFE1
:1053700000800040003801400044004000480040E8
:10538000004C0040005000403CF60008FFFC0F00BD
:105390000024F400082A65D8DFE802F00727056436
:1053A0002A6464640B00354803E0FEF7E7FC00283C
:1053B0005AD0626A324B33F81230B0FBF3F06268B5
:1053C000530803EB4000B0FBF2F0A0F110024FF6DF
:1053D000EF739A424AD883B223F00F03C0F342001E
:1053E00018432368D860002020E0FEF7D9FCDEE7F0
:1053F000FEF77EFBDBE7214803E0FEF7BFFC002859
:1054000038D0626A1E4B33F81230B0FBF3F0636899
:1054100000EB5300B0FBF3F0A0F110024FF6EF7376
:105420009A4229D8236880B2D86000200123A4F8CA
:105430006A30A4F8683000236367A36770BDFEF785
:10544000AFFCDCE7FEF754FBD9E74FF40040D8E7A8
:105450000120EBE70020E9E70120E7E70120E5E78D
:105460000120E3E70120E1E70020DFE70120DDE79D
:105470000120DBE70020D9E70120D7E70024F40072
:105480003CF60008836A13F0080F06D002685368E0
:1054900023F40043816B0B435360836A13F0010FC5
:1054A00006D00268536823F40033C16A0B4353608B
:1054B000836A13F0020F06D00268536823F4803326
:1054C000016B0B435360836A13F0040F06D002682C
:1054D000536823F48023416B0B435360836A13F0BA
:1054E000100F06D00268936823F48053C16B0B43FE
:1054F0009360836A13F0200F06D00268936823F448
:105500000053016C0B439360836A13F0400F0AD081
:105510000268536823F48013416C0B435360436C5F
:10552000B3F5801F0BD0836A13F0800F06D002689A
:10553000536823F40023C16C0B4353607047026827
:10554000536823F4C003816C0B435360EBE72DE9F0
:10555000F84305460E4617469946DDF820802C682C
:10556000E46936EA04030CBF4FF0010C4FF0000C65
:10557000BC4536D1B8F1FF3FF1D0FDF7C3F9A0EB40
:105580000900404530D8B8F1000F2FD02B681A68B9
:1055900012F0040FE3D0802EE1D0402EDFD0DA6984
:1055A00012F0080F11D1DA6912F4006FD7D04FF45E
:1055B00000621A622846FFF70EF92023C5F89030E2
:1055C000002385F8843003200CE008241C62284660
:1055D000FFF701F9C5F89040002385F884300120D9
:1055E00000E00020BDE8F8830320FBE70320F9E793
:1055F0002DE9F04182B01E46D0F88830202B5AD1D8
:1056000004460D469046002959D00AB9012053E0BE
:105610000023C0F890302123C0F88830FDF772F9DC
:105620000746A4F85480A4F85680A368B3F5805FB9
:1056300002D04FF0000816E0236943B34FF0000892
:1056400011E02023C4F88830032035E038F8023B0D
:105650002268C3F308039362B4F8562092B2013A69
:1056600092B2A4F85620B4F856309BB293B100968B
:105670003B46002280212046FFF769FF0028E0D149
:10568000002DE3D015F8012B23689A62E4E7A846C1
:105690000025E8E700963B46002240212046FFF720
:1056A00056FF18B92023C4F8883005E02023C4F839
:1056B0008830032000E0022002B0BDE8F081012024
:1056C000FAE730B583B004460023C0F89030FDF708
:1056D00019F905462268126812F0080F10D12368E4
:1056E0001B6813F0040F28D12023C4F88830C4F8B5
:1056F0008C300020E066206784F8840003B030BD61
:105700006FF07E430093034600224FF400112046C1
:10571000FFF71DFF0028E2D0226852E8003F23F087
:10572000800342E800310029F6D12023C4F88830F4
:10573000002384F884300320E0E76FF07E43009379
:105740002B4600224FF480012046FFF700FF00287F
:10575000CAD0226852E8003F23F4907342E8003137
:105760000029F6D1226802F1080353E8003F23F034
:105770000103083242E800310029F3D12023C4F8A4
:105780008C30002384F884300320B7E778B310B559
:105790000446D0F888300BB32423C4F8883022683C
:1057A000136823F001031360A36AE3B92046FFF7EF
:1057B000A5FC012811D02268536823F4904353605C
:1057C0002268936823F02A0393602268136843F0E9
:1057D000010313602046FFF774FF10BD80F884308A
:1057E000FCF746FDD8E72046FFF74CFEDEE7012038
:1057F0007047000010B48165A0F85C20A0F85E201E
:10580000002343678368B3F5805F06D0A3B90369BB
:1058100073B9FF23A0F8603014E0036923B940F2A4
:10582000FF13A0F860300DE0FF23A0F8603009E01E
:105830007F23A0F8603005E0B3F1805F2DD0002316
:10584000A0F860300023C0F890302223C0F88C30DC
:10585000016801F1080353E8003F43F001030831F8
:1058600041E80034002CF3D1436EB3F1005F1ED049
:105870008368B3F5805F42D0294B43670369002BEF
:1058800043D0026852E8003F43F4907342E800318D
:105890000029F6D1002010BC704703691BB97F2393
:1058A000A0F86030CEE73F23A0F86030CAE7B0F838
:1058B00068309342DCD88368B3F5805F19D0194B08
:1058C0004367036943B1026852E8003F43F48073C1
:1058D00042E800310029F6D1026802F1080353E8DA
:1058E000003F43F08053083242E800310029F3D1F1
:1058F000D0E70369002BE2D10B4B4367E1E7036973
:10590000002BB9D1094B4367B8E7026852E8003F62
:1059100043F0200342E800310029F6D1BAE700BF86
:10592000B54B0008694D0008354F0008914C000840
:1059300038B5D0F88C30202B17D1C1B1CAB10023B3
:10594000C36603680C4CA3420CD05B6813F4000FD1
:1059500008D0046854E8003F43F0806344E8003511
:10596000002DF6D1FFF746FF00E0022038BD0120F0
:10597000FCE70120FAE700BF00800040436E2BB92E
:105980000123A0F86A30A0F86830704730B403688B
:105990009A68C2F342629968490F094D6B5CDB005B
:1059A000084C615C93FBF1F3A0F86A30AB5CDB0060
:1059B000A25C93FBF2F3A0F8683030BC704700BFE4
:1059C0005CF6000854F6000870477047704790F87E
:1059D0008430012B18D0012380F884302423C0F8B0
:1059E000883003681A68196821F00101196022F0F3
:1059F00000520023436601680A602022C0F8882014
:105A000080F88430184670470220704738B590F807
:105A10008430012B1DD00446012380F884302423D8
:105A2000C0F8883003681D681A6822F001021A6005
:105A30000268936823F0604319439160FFF79EFF6B
:105A400023681D602023C4F88830002084F8840077
:105A500038BD0220FCE738B590F88430012B1DD00A
:105A60000446012380F884302423C0F8883003687A
:105A70001D681A6822F001021A600268936823F018
:105A8000606319439160FFF779FF23681D6020234D
:105A9000C4F88830002084F8840038BD0220FCE778
:105AA000014B1868704700BF0C00002070B50D4E08
:105AB0000D4D761BB61006D0002455F8043B01347A
:105AC0009847A642F9D1094E094D761B09F008FD09
:105AD000B61006D0002455F8043B01349847A6427E
:105AE000F9D170BD8CFC00088CFC000894FC000807
:105AF0008CFC0008830730B548D0541E002A3FD0E4
