:020000040800F2
:1000000000000220651200081D1200081F120008DF
:100010002112000823120008251200080000000029
:10002000000000000000000000000000271200088F
:1000300029120008000000002B1200082D120008F1
:10004000B5120008B5120008B5120008B512000874
:10005000B5120008B5120008B5120008B512000864
:10006000B5120008B5120008B5120008B512000854
:10007000B5120008B5120008B5120008B512000844
:10008000B5120008B5120008B5120008B512000834
:10009000B512000831120008B5120008B5120008A8
:1000A000B512000841120008B5120008B512000888
:1000B00051120008B5120008B5120008B512000868
:1000C000B5120008B5120008B5120008B5120008F4
:1000D000B5120008B5120008B5120008B5120008E4
:1000E000B5120008B5120008B5120008B5120008D4
:1000F000B5120008B5120008B5120008B5120008C4
:10010000B5120008B5120008B5120008B5120008B3
:10011000B5120008B5120008B5120008B5120008A3
:10012000B5120008B5120008B5120008B512000893
:10013000B5120008B5120008B5120008B512000883
:10014000B5120008B5120008B5120008B512000873
:10015000B5120008B5120008B5120008B512000863
:10016000B5120008B5120008B5120008B512000853
:10017000B5120008B5120008B5120008B512000843
:10018000B5120008B5120008B5120008B512000833
:10019000B512000800000000B5120008B5120008F2
:1001A000B5120008B5120008B5120008B512000813
:1001B000B5120008B5120008B5120008B512000803
:1001C000B5120008B5120008B5120008B5120008F3
:0801D000B5120008B512000889
:1001D80010B5054C237833B9044B13B10448AFF379
:1001E80000800123237010BD3C04002000000000A3
:1001F8007C32000808B5034B1BB103490348AFF331
:10020800008008BD00000000400400207C32000887
:1002180080F0004002E000BF81F0004142001FBFB3
:100228005FEA410392EA030F7FEA226C7FEA236CBC
:100238006AD04FEA1262D2EB1363C1BFD2184140B1
:1002480048404140B8BF5B42192B88BF704710F047
:10025800004F40F4000020F07F4018BF404211F0EA
:10026800004F41F4000121F07F4118BF494292EA52
:10027800030F3FD0A2F1010241FA03FC10EB0C007E
:10028800C3F1200301FA03F100F0004302D549420B
:1002980060EB4000B0F5000F13D3B0F1807F06D3B8
:1002A80040084FEA310102F10102FE2A51D2B1F1B0
:1002B800004F40EBC25008BF20F0010040EA0300A5
:1002C8007047490040EB0000013A28BFB0F5000F25
:1002D800EDD2B0FA80FCACF1080CB2EB0C0200FADB
:1002E8000CF0AABF00EBC25052421843BCBFD0402A
:1002F8001843704792F0000F81F4000106BF80F4A4
:1003080000000132013BB5E74FEA41037FEA226C66
:1003180018BF7FEA236C21D092EA030F04D092F031
:10032800000F08BF0846704790EA010F1CBF002065
:10033800704712F07F4F04D1400028BF40F00040C2
:10034800704712F100723CBF00F50000704700F0E2
:10035800004343F0FE4040F4000070477FEA226209
:1003680016BF08467FEA23630146420206BF5FEADA
:10037800412390EA010F40F4800070474FF00003DA
:1003880004E000BF10F0004348BF40425FEA000CA1
:1003980008BF704743F0964301464FF000001CE049
:1003A80050EA010208BF70474FF000030AE000BF9F
:1003B80050EA010208BF704711F0004302D54042DD
:1003C80061EB41015FEA010C02BF8446014600204F
:1003D80043F0B64308BFA3F18053A3F50003BCFA6A
:1003E8008CF2083AA3EBC25310DB01FA02FC634417
:1003F80000FA02FCC2F12002BCF1004F20FA02F21E
:1004080043EB020008BF20F00100704702F1200210
:1004180001FA02FCC2F1200250EA4C0021FA02F271
:1004280043EB020008BF20EADC7070474FF0FF0C76
:100438001CEAD0521EBF1CEAD15392EA0C0F93EA71
:100448000C0F6FD01A4480EA010C400218BF5FEA13
:1004580041211ED04FF0006343EA501043EA511186
:10046800A0FB01310CF00040B1F5000F3EBF490080
:1004780041EAD3715B0040EA010062F17F02FD2A84
:100488001DD8B3F1004F40EBC25008BF20F0010067
:10049800704790F0000F0CF0004C08BF49024CEA7E
:1004A800502040EA51207F3AC2BFD2F1FF0340EA10
:1004B800C250704740F400004FF00003013A5DDC81
:1004C80012F1190FDCBF00F000407047C2F10002C2
:1004D800410021FA02F1C2F1200200FA02FC5FEAAF
:1004E800310040F1000053EA4C0308BF20EADC70F9
:1004F800704792F0000F00F0004C02BF400010F46B
:10050800000F013AF9D040EA0C0093F0000F01F017
:10051800004C02BF490011F4000F013BF9D041EA39
:100528000C018FE70CEAD15392EA0C0F18BF93EA3B
:100538000C0F0AD030F0004C18BF31F0004CD8D165
:1005480080EA010000F00040704790F0000F17BFEC
:1005580090F0004F084691F0000F91F0004F14D032
:1005680092EA0C0F01D142020FD193EA0C0F03D18A
:100578004B0218BF084608D180EA010000F000408D
:1005880040F0FE4040F40000704740F0FE4040F468
:10059800400070474FF0FF0C1CEAD0521EBF1CEA07
:1005A800D15392EA0C0F93EA0C0F69D0A2EB030225
:1005B80080EA010C49024FEA402037D04FF08053BF
:1005C80043EA111143EA10130CF000408B4238BF84
:1005D8005B0042F17D024FF4000C8B4224BF5B1A92
:1005E80040EA0C00B3EB510F24BFA3EB510340EAE0
:1005F8005C00B3EB910F24BFA3EB910340EA9C008E
:10060800B3EBD10F24BFA3EBD10340EADC001B01FD
:1006180018BF5FEA1C1CE0D1FD2A3FF650AF8B42A1
:1006280040EBC25008BF20F0010070470CF0004CAE
:100638004CEA50207F32C2BFD2F1FF0340EAC250D9
:10064800704740F400004FF00003013A37E792F09A
:10065800000F00F0004C02BF400010F4000F013AF8
:10066800F9D040EA0C0093F0000F01F0004C02BFF3
:10067800490011F4000F013BF9D041EA0C0195E75C
:100688000CEAD15392EA0C0F08D142027FF47DAFF5
:1006980093EA0C0F7FF470AF084676E793EA0C0FE5
:1006A80004D14B023FF44CAF08466EE730F0004CE3
:1006B80018BF31F0004CCAD130F000427FF45CAF73
:1006C80031F000437FF43CAF5FE700BF4FF0FF3CE1
:1006D80006E000BF4FF0010C02E000BF4FF0010C34
:1006E8004DF804CD4FEA40024FEA41037FEA226CFD
:1006F80018BF7FEA236C11D001B052EA530C18BF1F
:1007080090EA010F58BFB2EB030088BFC81738BF83
:100718006FEAE17018BF40F0010070477FEA226C71
:1007280002D15FEA402C05D17FEA236CE4D15FEA6D
:10073800412CE1D05DF8040B704700BF84460846A1
:100748006146FFE70FB5FFF7C9FF002848BF10F162
:10075800000F0FBD4DF808EDFFF7F4FF0CBF0120A7
:1007680000205DF808FB00BF4DF808EDFFF7EAFF31
:1007780034BF012000205DF808FB00BF4DF808EDEC
:10078800FFF7E0FF94BF012000205DF808FB00BFE1
:100798004DF808EDFFF7D2FF94BF012000205DF867
:1007A80008FB00BF4DF808EDFFF7C8FF34BF012074
:1007B80000205DF808FB00BF4FEA4002B2F1FE4F8F
:1007C8000FD34FF09E03B3EB12620DD94FEA00230B
:1007D80043F0004310F0004F23FA02F018BF4042E4
:1007E80070474FF00000704712F1610F01D14202CB
:1007F80005D110F0004008BF6FF0004070474FF07F
:100808000000704770B586B00024009401940294EB
:1008180001260396049440F2FF730593074D694639
:10082800284600F043FF284600F070FF2246314674
:10083800284601F05DF806B070BD00BF88060020AC
:10084800F0B58DB007460E4615461C4624220021F9
:1008580003A802F04DFC4FF400730393082306939A
:1008680047FA03F38DF804308DF8057033128DF8CC
:1008780006308DF807602B128DF808308DF8095076
:1008880023128DF80A308DF80B4001AA03A90248FB
:1008980000F053FF0DB0F0BD8806002000B58DB004
:1008A8006B4602AA402100F071FF029BA3F20122CD
:1008B800032A20D8DBB2013BDBB29DF800209DF86B
:1008C800011041EA02210D4A22F833109DF8020076
:1008D8009DF8031041EA002102EBC30359809DF8FB
:1008E80004109DF8052042EA01229A809DF806200E
:1008F8009A710122DA710DB05DF804FB58040020EA
:10090800F0B583B0002432E01B4E670104EB4413BA
:100918009A00B318B45400255D609D60DD601D61C8
:100928005D610022A3F87820A3F87A20DA6783F8BB
:10093800802004EB441398001830104B0193104B9F
:100948000093104B4FF07C520F49304400F02EFBBF
:100958003B19980048300D4B01930D4B00930D4BFC
:100968002A464FF08041304400F020FB0134032C2C
:10097800CADD03B0F0BD00BF780400200000FA45CE
:1009880000007A46CDCC4C3E00007041000048443F
:100998000080BB449A99993E2DE9F843314B03EB0B
:1009A800C003DB79002B49D004462E4E06EBC0026B
:1009B8000023D37100EB40152B4B03EB8505B2F9EF
:1009C8000200FFF7DFFC286136F8346095F88030C4
:1009D800002B35D004EB4413234A02EB8303B3F80E
:1009E8007A30F31A1BB2B3F5805F2FDD04EB4413A2
:1009F80002EB8303DA6F013ADA671B4F04EB441505
:100A080007EB8505A5F87A60E86FFFF7BBFC4FF0A8
:100A18008C41FFF70BFD81463046FFF7B3FC494692
:100A2800FFF7FCFB4FF06451FFF700FD0F49FFF79C
:100A3800FDFC0F49FFF7AEFD6861E860BDE8F8838B
:100A4800A5F87A60012285F88020F7E713F5805F22
:100A5800D3DA04EB4413044A02EB8303DA6F01325E
:100A6800DA67CAE758040020780400200000B4437D
:100A78000000984100EB4010024B03EB80008160BE
:100A8800704700BF780400202DE9F04182B00024AF
:100A98000094019427E0394F650104EB441607EBF5
:100AA800860604EB441080004830F268414638441A
:100AB80000F08CFA01462B199B0018333269F8189C
:100AC80000F084FAFFF778FEA6F8780004EB4413E8
:100AD8002A4A02EB8303B3F9782002AB03EB440301
:100AE80023F8082C0134032C3BDC04EB4413234A81
:100AF80002EB830393F88030002BF3D004EB44130C
:100B080002EB8303D3F8048000214046FFF722FE5E
:100B18000028C0D004EB4413184A02EB83039D68F5
:100B280000212846FFF716FE40B104EB4413134A90
:100B380002EB83030022A3F87820C7E70F4804EBF1
:100B4800441600EB860604EB44139B001833326905
:100B58002946184400F03AFAFFF72EFEA6F8780066
:100B6800B4E7BDF90630BDF90420BDF90210BDF99E
:100B78000000FFF765FE02B0BDE8F08178040020B0
:100B880030B589B00024039404940594069407941E
:100B9800174BDA6C42F02002DA64DA6C02F02002B9
:100BA8000092009ADA6C42F01002DA64DA6C02F011
:100BB80010020192019ADA6C42F00102DA64DB6CED
:100BC80003F001030293029B0A4D22464FF4405161
:100BD800284601F0CDF84FF44053039301230493C2
:100BE8000594069403A9284600F0D4FF09B030BD47
:100BF800001002400010004830B587B0002401946E
:100C080002940394049405940E4BDA6C42F010029B
:100C1800DA64DB6C03F010030093009B0A4D224654
:100C28004FF44051284601F0A3F84FF44053019384
:100C3800012302930394049401A9284600F0AAFF13
:100C480007B030BD001002400010004811F0010F3D
:100C580000D1704708B5FFF721FE08BD10B504465E
:100C68000268194B9A4204D02368B3F1804F03D02D
:100C780010BD00F02BFBF7E7144A1368013313602B
:100C8800134A136801331360312B0ED80F4B1A68BF
:100C9800104BA3FB02139B09C82101FB13236BB163
:100CA80000F03BF900F046F9E2E7134600221A602B
:100CB8004FF48051084801F060F8E7E74FF400511D
:100CC800054801F05AF8EBE7002C01403C070020EA
:100CD800380700201F85EB510010004808B572B690
:100CE8000F4C01224FF48051204601F041F80022B8
:100CF8004FF40051204601F03BF8642000F0F8FA68
:100D080000224FF48051204601F032F801224FF4BE
:100D18000051204601F02CF8642000F0E9FADFE7E2
:100D28000010004808B50F480F4B036000234360CC
:100D38008360C36003744374837405224261012293
:100D480082610D21C1610321016242628262C26235
:100D5800026343638363C36300F0BEFB00B908BD4D
:100D6800FFF7BCFF880600200064004000B589B08A
:100D78000023049305930693079301930293039327
:100D880014484FF08042026044F267224260836058
:100D98006322C26003618023836102F041F890B945
:100DA8004FF48053049304A90A4802F075F860B917
:100DB80000230193039301A9064802F017F930B9FB
:100DC80009B05DF804FBFFF789FFFFF787FFFFF71E
:100DD80085FF00BFEC06002000B595B03822002141
:100DE80006A802F085F90020019002900390049073
:100DF800059000F0CBFF012306934FF4803307934F
:100E080002230D9303220E920C220F925522109268
:100E1800119304221292139306A801F071F890B965
:100E28000F23019303230293002303934FF480625B
:100E38000492059304210DEB010001F017FB20B982
:100E480015B05DF804FBFFF749FFFFF747FF000007
:100E580038B500F02CFAFFF7BFFFFFF791FEFFF758
:100E680061FFFFF783FFFFF7C7FE254C01224FF410
:100E78008051204600F07CFF01224FF400512046AB
:100E880000F076FF4FF4FA6000F032FA00224FF4D7
:100E98008051204600F06CFF00224FF4005120469C
:100EA80000F066FF4FF4FA7000F022FA00251FE008
:100EB800134C01224FF48051204600F059FF0122C3
:100EC8004FF40051204600F053FFC82000F010FAFC
:100ED80000224FF48051204600F04AFF00224FF4D0
:100EE8000051204600F044FFC82000F001FA013507
:100EF800022DDDDD00F008F8024801F0D5FDFEE71F
:100F080000100048EC06002008B5FFF77BFC6420C1
:100F180000F0EEF9FFF7F4FC08BD10B5002403E07B
:100F2800E0B2FFF739FD0134032CF9DDFFF7ACFD22
:100F380010BD000008B5184B1A6801321A60174B2B
:100F4800A3FB02135B094FF4FA7101FB1323C3B926
:100F5800134B1B78012B15D0022B18D01BB1104B4B
:100F680000221A700DE00F490020FFF783FD0C4A9C
:100F780013780133DBB21370022B02D91346002217
:100F88001A7008BD08490020FFF774FDEFE700213B
:100F98000020FFF76FFDEAE740070020D34D6210FD
:100FA800440700200000C8420000C8C20160426037
:100FB8008360009B8362019BC3620023C36003615B
:100FC80043618361C361036243627047F8B50446B5
:100FD80008461146E0602261FFF71EF90546606188
:100FE800E169FFF71BF90646E061E76A3946FFF752
:100FF800D9FB38B3E761A1692846FFF70DF9064622
:10100800206221682846FFF711FA0746E1696068FF
:10101800FFF70CFA01463846FFF700F90746A168C2
:101028003046FFF703FA01463846FFF7F7F8064659
:101038006062A76A3946FFF7B5FB68B16762A561C8
:10104800606AF8BD07F1004739463046FFF78CFB68
:101058000028D0D0E761CEE707F10047394630468F
:10106800FFF782FB0028EAD06762E8E700B583B0A3
:101078000B4B1A6E42F001021A661A6E02F0010258
:101088000092009A9A6D42F080529A659B6D03F027
:1010980080530193019B00F0FFFE03B05DF804FB51
:1010A8000010024010B59CB0044600211791189119
:1010B80019911A911B91542202A802F019F822687A
:1010C8001E4B9A4201D01CB010BD4FF480530293BE
:1010D8004FF00073109302A801F0FAFA50BB184BB6
:1010E8009A6D42F000729A659A6D02F00072009251
:1010F800009ADA6C42F00102DA64DB6C03F0010357
:101108000193019B4FF4C0531793022318930024B3
:1011180019941A9409231B9317A94FF0904000F0D3
:1011280039FD22462146152000F008F9152000F067
:101138003DF9C8E7FFF7D2FDD1E700BF00640040E2
:10114800001002400368B3F1804F00D0704700B52B
:1011580083B003F504339A6D42F001029A659B6DE2
:1011680003F001030193019B002211461C2000F0AB
:10117800E5F81C2000F01AF903B05DF804FB000044
:1011880030B589B004461E4B1A6E42F400621A66E6
:101198001B6E03F400630193019B02A903A801F0ED
:1011A80079FA01F065FA03461648A0FB03239B0C65
:1011B800013B1548154A026040F2E732C2604360BD
:1011C80000230361836001F02BFE054610B1284619
:1011D80009B030BD0C4801F067FC05460028F6D17F
:1011E800192000F0E3F80F2C01D90125EFE70022C0
:1011F8002146192000F0A2F8054B1C60E7E700BF64
:101208000010024083DE1B4348070020002C0140E9
:1012180008000020FEE7FEE7FEE7FEE7FEE770476E
:10122800704770477047000008B5024800F0EDFBB2
:1012380008BD00BF8806002008B5024801F082FCFE
:1012480008BD00BF4807002008B5024801F07AFC35
:1012580008BD00BFEC060020704700000D48854619
:10126800FFF7FAFF0C480D490D4A002302E0D45855
:10127800C4500433C4188C42F9D30A4A0A4C0023D8
:1012880001E013600432A242FBD301F00DFFFFF727
:10129800DFFDFEE700000220000000203C040020E3
:1012A800CC3200083C0400209C070020FEE710B563
:1012B800032000F031F80F20FFF762FF10B101247E
:1012C800204610BD0446FFF7D1FEF9E7034A13682C
:1012D800034909680B441360704700BF9407002056
:1012E80004000020014B1868704700BF94070020D5
:1012F80038B50446FFF7F6FF0546B4F1FF3F02D0C4
:10130800044B1B681C44FFF7EDFF401BA042FAD3B7
:1013180038BD00BF04000020074AD36823F4E06307
:101328001B041B0C000200F4E060034343F0BF639E
:1013380043F40033D360704700ED00E000B5194B6B
:10134800DB68C3F30223C3F1070CBCF1040F28BF09
:101358004FF0040C03F1040EBEF1060F18D9033B3D
:101368004FF0FF3E0EFA0CFC21EA0C0199400EFAF0
:1013780003F322EA0303194300280BDB0901C9B26E
:1013880000F1604000F5614080F800135DF804FB4F
:101398000023E5E700F00F000901C9B2024B195418
:1013A800F4E700BF00ED00E014ED00E0002807DBE3
:1013B80000F01F02400901239340024A42F82030FE
:1013C800704700BF00E100E002681D4B9A422AD036
:1013D8001C491D4B9A4228D00164D2F8803023F46E
:1013E800F813D0F834C043EA0C43C2F8803001F156
:1013F800700343640268D2F8803023F07063D0F839
:1014080038C043EA0C63C2F8803001F1B00383644A
:1014180001F5C473C36401F51873036501F51E7300
:1014280043650B4607E00949D3E701F5D461D3E7E3
:10143800002243F8042B01F554729A42F8D87047F9
:101448000068004000A40040006C004050A7004025
:1014580070B54C68ECB90D698C6825430C6845EA91
:101468008445CC690E6A44EA06648E6934434E6941
:101478003443CE6844EA0644406D03EBC30300EBF3
:10148800C30E40F83350CEF804400EF1080E002089
:1014980019E00C698D6825430C68254345F08045A3
:1014A800DFE702EB000C9CF803409CF802301B04B9
:1014B80043EA04639CF8014043EA0423145C234391
:1014C8004EF8043B0430CB68024CE35C8342E8D816
:1014D80070BD00BFAC320008002800F0E38038B5CA
:1014E800044690F85C30D3B12268936923F0100366
:1014F8009361FFF7F7FE054623689A6912F0080F13
:1015080012D0FFF7EFFE401B0A28F5D9236E43F0EF
:1015180001032366032384F85C30012038BD80F87A
:101528005D30FFF7BFFDDFE79A6942F001029A617B
:10153800FFF7D8FE054623689A6912F0010F0DD10E
:10154800FFF7D0FE401B0A28F5D9236E43F00103AC
:101558002366032384F85C300120DFE79A6942F0B0
:1015680002029A612268504B9A4242D0237C012B96
:1015780045D02268936943F040039361637C012B53
:1015880043D02268936923F480439361A37C012BA1
:1015980041D02268936943F4805393612268936928
:1015A80023F44073A1680B4393612268936923F085
:1015B800A40393612268136923F010031361E3689D
:1015C800012B2ED0002B31D0022B54D022689369E6
:1015D80043F0800393612268136943F01003136199
:1015E800E368032B22D12268936943F020039361B7
:1015F8001CE06268A3F58063C3F80025B6E722689B
:10160800936923F040039361B8E72268936943F430
:1016180080439361BAE72268936923F48053936106
:10162800BCE72268936943F004039361A3695A1ED7
:10163800E369013B1B0243EA4263226A013A13430E
:101648006269013A216843EA0243CB61A368B3F5B2
:10165800407F16D02268D2F8C030E16B0B43C2F845
:10166800C0302046FFF7B0FE0020A06520660123A9
:1016780084F85C3052E72268936943F02003936151
:10168800D4E7A36A013BE26A013A43EA0223226BE8
:10169800013A43EA0213626A013A216843EA0243C3
:1016A800CB60D7E7012070470064004090F85C30B9
:1016B800013BDBB2012B05D9036E43F0020303663D
:1016C800012070470B687BB98A68CB68DB0643EA60
:1016D80082730A6943EA02434A691343026C496800
:1016E80042F8213000207047CA680B6943EA427209
:1016F8004B69D1F808C043EA8C73406C496800EB29
:10170800C10C40F83120CCF80430EBE790F85C309D
:10171800DBB2012B05D0036E43F0040303660120FE
:101728007047022380F85C300268936923F0010354
:101738009361002303661846704738B5044690F84D
:101748005C30DBB2022B1BD10368D3F8C40010F461
:10175800001F05D0236E43F400732366012014E0B4
:10176800D3F8C450C5F301452B462046FFF770FE59
:1017780022680123AB40C2F8CC30A365002004E006
:10178800036E43F008030366012038BD70B590F876
:101798005C40E4B2022C40F0A28040290BD00468DF
:1017A800D4F8985015F00F0F2DD1036E43F48073C1
:1017B8000366012098E00468D4F8905015F00F0FE4
:1017C80005D1036E43F48073036601208CE0D4F8DE
:1017D8009050C5F3006C15F0807F08D0D4F8805085
:1017E800C5F3402C15F4007F01D04FF0010CD4F85C
:1017F8009040C4F301240CEB0405846C05EBC50C84
:1018080004EBCC0C1AE0D4F89850C5F3006C15F032
:10181800807F08D0D4F88050C5F3002C15F4807F61
:1018280001D04FF0010CD4F89840C4F301240CEB1C
:101838000405C46C05EBC50C04EBCC0CDCF80040CB
:1018480004F08044546074BBDCF80040C4F38A445C
:101858001460DCF8004004F000549460DCF80040A8
:1018680004F000441461BCF80440D461BCF806409C
:1018780004F00F04D460DCF8044004F480145461CC
:10188800DCF8044004F4001494619CF8074004F068
:101898007F041462DCF80440E40F54620CF1080E73
:1018A8004FF0000C0BE0DCF8004024F060441460BA
:1018B800CFE71EF80C4003F80C400CF1010C0B4C60
:1018C800D668A45D6445F4D8402904D00368C3F8F9
:1018D8009C50002008E00368C3F89450F9E7036EB1
:1018E80043F008030366012070BD00BFAC32000856
:1018F80090F85C30013BDBB2012B05D9036E43F055
:10190800020303660120704770B40468A36D11F0E8
:10191800070602D013F0010F23D011F0380F02D0C0
:1019280013F0020F1DD011F4E07F02D013F0040F62
:1019380017D011F4F05F02D013F0080F11D011F492
:10194800604F02D013F0100F0BD011F4403F02D0BB
:1019580013F0200F05D011F47C0F06D013F0400FC0
:1019680003D1E56D45F00105E56516B113F0010FEA
:1019780023D111F0380F02D013F0020F1DD111F44A
:10198800E07F02D013F0040F17D111F4F05F02D0FA
:1019980013F0080F11D111F4604F02D013F0100F9B
:1019A8000BD111F4403F02D013F0200F05D111F4F0
:1019B8007C0F07D013F0400F04D00468E36D43F0A8
:1019C8000203E36511F0800F05D00468D4F8DC3019
:1019D8001343C4F8DC3011F4807F05D00468D4F8D0
:1019E800E0301A43C4F8E0200268536D194351658A
:1019F800002070BC70477047704770477047704749
:101A0800704770477047704770472DE9F84F044694
:101A180003681A6D02F4E05A5A6D0AEA020A1A6D4E
:101A280002F007095A6D09EA02091A6D02F038082E
:101A38005A6D08EA02081E6D06F471065A6D1640C2
:101A48001F6D07F460275A6D1740D3F854B01D6D09
:101A580015F0400F02D01BF0400F41D115F4807FE4
:101A680002D01BF4807F40D1BAF1000F4AD1B9F1FE
:101A7800000F4FD1B8F1000F54D115F4007F02D0F8
:101A88001BF4007F56D115F0800F02D01BF0800F99
:101A980058D115F4005F02D01BF4005F5ED115F435
:101AA800004F02D01BF4004F60D115F4804F0AD0CC
:101AB8001BF4804F07D023684FF480421A65236EC9
:101AC80043F080032366002F58D126B123681E6592
:101AD800236E1E432666236E002B56D1BDE8F88F71
:101AE80040221A65FFF78EFFB8E72368D3F8D810AD
:101AF800D3F8E0204FF48070186511402046FFF7B6
:101B08007EFFB1E72368C3F850A051462046FFF78F
:101B180072FFACE72368C3F8509049462046FFF7A8
:101B280095F8A7E72368C3F8508041462046FFF799
:101B380063FFA2E723684FF400721A652046FFF797
:101B48005CFFA0E72368D3F8D410D3F8DC2080200A
:101B5800186511402046FFF751FF9AE723684FF4B4
:101B680000521A652046FFF74BFF98E723684FF4A9
:101B780000421A652046FFF744FF96E723681F6571
:101B880039462046FFF740FF9FE72046FFF73BFF17
:101B9800A4E7000070B582B0002365E085685E00A8
:101BA8000324B44025EA0405CC68B4402C4384607F
:101BB800446824EA0C0C4C68C4F300149C4044EAC2
:101BC8000C04446061E0DD08083550F8256003F036
:101BD80007044FEA840C0F2404FA0CF426EA040ED6
:101BE8000C6904FA0CF444EA0E0440F8254063E05A
:101BF800052400E0002404FA0EF42C430CF1020C36
:101C0800574D45F82C40574CA568D44325EA0206A1
:101C1800D1F804C01CF4801F01D042EA0506514DDA
:101C2800AE60ED6804EA0506D1F804C01CF4001F94
:101C380001D042EA05064B4DEE606D6804EA0506E0
:101C4800D1F804C01CF4003F01D042EA0506454D16
:101C58006E602D682C404E6816F4803F01D042EA31
:101C68000504404A146001330A6832FA03F474D058
:101C78004FF0010C0CFA03FC1CEA0202F3D04C688A
:101C880004F00304013C012C88D94C6804F00304D7
:101C9800032C0CD0C4685D004FF0030C0CFA05FC53
:101CA80024EA0C0C8C68AC4044EA0C04C4604C6810
:101CB80004F00304022C86D004684FEA430E4FF068
:101CC800030C0CFA0EFC24EA0C0C4C6804F0030418
:101CD80004FA0EF444EA0C0404604C6814F4403F1F
:101CE800C1D0214C256E45F001052566246E04F00F
:101CF80001040194019C4FEA930C0CF10205184C65
:101D080054F8255003F003044FEA840E0F2404FA14
:101D18000EF425EA0405B0F1904F3FF46BAF134C75
:101D2800A04212D004F58064A04210D004F580646B
:101D3800A0420ED004F58064A0420CD004F5806463
:101D4800A0423FF455AF062455E7012453E7022487
:101D580051E703244FE704244DE702B070BD00BFEC
:101D68000000014000040140001002400004004847
:101D78000AB18161704781627047436901EA0302D1
:101D880021EA030141EA024181617047002836D106
:101D98003E4B1B6803F4C063B3F5806F08D03B4A21
:101DA800D2F8803023F48073C2F880300020704766
:101DB800364AD2F8803023F48073C2F88030136832
:101DC80023F4C06343F400731360314B1B68322261
:101DD80002FB03F32F4AA2FB03239B0C013300E011
:101DE800013B2A4A526912F4806F01D0002BF7D1C7
:101DF800264B5B6913F4806F44D100207047B0F51F
:101E0800007F08D0214A136823F4C06343F4806339
:101E18001360002070471D4B1B6803F4C063B3F5C3
:101E2800806F08D0194AD2F8803043F48073C2F822
:101E3800803000207047154AD2F8803043F4807310
:101E4800C2F88030136823F4C06343F4007313604E
:101E58000F4B1B68322202FB03F30E4AA2FB03233B
:101E68009B0C013300E0013B084A526912F4806F71
:101E780001D0002BF7D1054B5B6913F4806F03D1B8
:101E8800002070470320704703207047007000400F
:101E98000000002083DE1B43024A936843F480431A
:101EA8009360704700700040124BDA6802F003023A
:101EB800D868C0F30310431C032A11D00E48B0FBA6
:101EC800F3F00C4BDB68C3F3062303FB00F0094B6C
:101ED800DB68C3F3416301335B00B0FBF3F0704789
:101EE8000648B0FBF3F0034BDB68C3F3062303FBA0
:101EF80000F0ECE7001002400024F400006CDC0263
:101F0800002800F04F8270B582B00446036813F0D1
:101F1800010F37D0A44A936803F00C03D26802F08B
:101F280003020C2B23D0082B23D06368B3F5803F22
:101F38004ED0B3F5A02F51D09B4B1A6822F48032B3
:101F48001A601A6822F480221A606368002B52D043
:101F5800FFF7C8F90546944B1B6813F4003F11D1ED
:101F6800FFF7C0F9401B6428F5D9032023E2032AB0
:101F7800D9D18D4B1B6813F4003F03D06368002B45
:101F880000F01282236813F0020F5DD0864A93682E
:101F980003F00C03D26802F003020C2B3AD0042B96
:101FA8003AD0E368002B75D07F4A136843F48073F6
:101FB8001360FFF797F905467B4B1B6813F4806F96
:101FC8005FD1FFF78FF9401B0228F5D90320F2E112
:101FD800754A136843F480331360B6E703F180430E
:101FE800A3F53C331A6842F480221A601A6842F456
:101FF80080321A60A9E7FFF775F905466A4B1B6836
:1020080013F4003FBED0FFF76DF9401B6428F5D9E3
:102018000320D0E1022AC2D1634B1B6813F4806FFE
:1020280003D0E368002B00F0C1815F4A536823F0B6
:10203800FE43216943EA016353605C4B1868FFF76C
:102048009FF8002840F0B481236813F0080F4CD0A3
:1020580063699BB3544AD2F8943043F00103C2F841
:102068009430FFF73FF905464F4BD3F8943013F0FF
:10207800020F3AD1FFF736F9401B0228F4D90320A2
:1020880099E1494A536823F0FE43216943EA016311
:102098005360D9E7444A136823F480731360FFF749
:1020A80021F90546404B1B6813F4806FCCD0FFF72D
:1020B80019F9401B0228F5D903207CE13A4AD2F8E5
:1020C800943023F00103C2F89430FFF70BF905466A
:1020D800354BD3F8943013F0020F06D0FFF702F90E
:1020E800401B0228F4D9032065E1236813F0040F8C
:1020F80000F081802C4B9B6D13F0805F36D12A4B0A
:102108009A6D42F080529A659B6D03F0805301935B
:10211800019B0125264B1B6813F4807F28D0A368F8
:10212800012B39D0052B45D01F4BD3F8902022F036
:102138000102C3F89020D3F8902022F00402C3F8DB
:102148009020A368002B43D0FFF7CCF80646164B27
:10215800D3F8903013F0020F4CD1FFF7C3F8801B6F
:1021680041F288339842F2D9032024E10025D1E7CF
:102178000F4A136843F480731360FFF7B3F80646F9
:102188000B4B1B6813F4807FC9D1FFF7ABF8801B9A
:102198000228F5D903200EE1034AD2F8903043F023
:1021A8000103C2F89030CCE700100240080000207C
:1021B80000700040884BD3F8902042F00402C3F826
:1021C8009020D3F8902042F00102C3F89020B8E79D
:1021D800FFF788F80646804BD3F8903013F0020FCB
:1021E80008D0FFF77FF8801B41F288339842F2D974
:1021F8000320E0E0E5B9236813F0200F35D0A36988
:10220800E3B1754AD2F8983043F00103C2F8983028
:10221800FFF768F80546704BD3F8983013F0020FB3
:1022280023D1FFF75FF8401B0228F4D90320C2E04E
:10223800694A936D23F080539365DCE7664AD2F8C8
:10224800983023F00103C2F89830FFF74BF80546A1
:10225800614BD3F8983013F0020F06D0FFF742F81D
:10226800401B0228F4D90320A5E0E369002B00F005
:10227800A180594A926802F00C020C2A64D0022B01
:1022880013D0554A136823F080731360FFF72AF8B8
:102298000446514B1B6813F0007F4ED0FFF722F81D
:1022A800001B0228F5D9032085E04B4A136823F068
:1022B80080731360FFF716F80546474B1B6813F049
:1022C800007F06D0FFF70EF8401B0228F5D903203F
:1022D80071E0414AD36841491940236A606A01386C
:1022E80043EA0013A06A43EA0023206B4008013840
:1022F80043EA4053606B4008013843EA4063E06AB0
:1023080043EAC0630B43D360136843F080731360E0
:10231800D36843F08073D360FEF7E4FF04462E4B86
:102328001B6813F0007F06D1FEF7DCFF001B0228B4
:10233800F5D903203FE000203DE0274AD168284B2B
:102348000B40D360002036E0012B36D0224BDB68EF
:1023580003F00301226A914231D103F0F002616A6D
:102368000139B2EB011F2CD103F4FE42A16AB2EB92
:10237800012F28D103F07842E16AB2EBC16F24D172
:1023880003F4C001226B5208013AB1EB425F1ED13F
:1023980003F0C063626B5208013AB3EB426F18D185
:1023A800002008E001207047012004E0012002E03D
:1023B800012000E0002002B070BD0120FBE70120F1
:1023C800F9E70120F7E70120F5E70120F3E701200D
:1023D800F1E70120EFE700BF001002400C809F01E9
:1023E800FCFFEEFE1E4B9B6803F00C03042B33D05E
:1023F8001B4B9B6803F00C03082B2FD0184B9B68D2
:1024080003F00C030C2B01D000207047144BDA6842
:1024180002F00302D868C0F30310431C032A11D04A
:102428001048B0FBF3F00E4BDB68C3F3062303FB45
:1024380000F00B4BDB68C3F3416301335B00B0FB77
:10244800F3F070470848B0FBF3F0054BDB68C3F3C3
:10245800062303FB00F0ECE7024870470248704788
:10246800001002400024F400006CDC02002800F098
:10247800E680F8B50C460546744B1B6803F00F035D
:102488008B420BD2714A136823F00F030B4313607E
:10249800136803F00F038B4240F0D3802E6816F0C8
:1024A80001065FD06B68032B2FD0022B4DD0684BF1
:1024B8001B6813F4806F00F0C680FFF793FF654B2D
:1024C80098424DD9624A936823F0F00343F08003A1
:1024D800936080265E4A936823F0030369680B4380
:1024E8009360FEF7FFFE0746594B9B6803F00C0309
:1024F8006A68B3EB820F35D0FEF7F4FEC01B41F2D9
:1025080088339842F0D9032078E0514B1B6813F0C8
:10251800007F01D1012071E0FFF7C6FC4D4B9842C6
:102528001AD94B4B9B6813F0F00F05D02E6816F0A4
:102538000206CFD0AB688BB9454A936823F0F00305
:1025480043F0800393608026C4E7414B1B6813F473
:10255800003FB2D1012051E00026BBE70026B9E7D1
:102568000026B7E72B6813F0020F48D013F0040FCA
:1025780004D0374A936843F4E06393602B6813F000
:10258800080F06D0324A936823F47C5343F4E0637F
:1025980093602F4A936823F0F003A9680B43936074
:1025A8002A4B1B6803F00F03A34230D82B6813F0A3
:1025B800040F06D0264A936823F4E063E9680B43C6
:1025C80093602B6813F0080F07D0214A936823F40F
:1025D8006053296943EAC1039360FFF703FF1C4B6B
:1025E8009B68C3F303131C4AD35C03F01F03D84052
:1025F8001A4B18601A4B1868FEF7C2FDF8BD802EFA
:10260800CED1134A936823F0F0039360C8E70F4ACA
:10261800136823F00F0323431360FEF763FE064697
:102628000A4B1B6803F00F03A342BFD0FEF75AFE04
:10263800801B41F288339842F2D90320DEE701205B
:1026480070470120DAE70120D8E700BF00200240E8
:102658000010024000B4C4049432000800000020B6
:1026680008000020014B1868704700BF00000020D8
:1026780008B5FFF7F7FF054B9B68C3F3C223044A6D
:10268800D35C03F01F03D84008BD00BF0010024010
:10269800A43200080F2303600B4B9A6802F0030270
:1026A80042609A6802F0F00282609A6802F4E0627E
:1026B800C2609B68DB0803F4E0630361034B1B689B
:1026C80003F00F030B607047001002400020024027
:1026D800F0B583B00446036813F4002F6ED0354B71
:1026E8009B6D13F0805F1ED1324B9A6D42F0805281
:1026F8009A659B6D03F080530193019B01262E4A36
:10270800136843F480731360FEF7ECFD05462A4B0B
:102718001B6813F4807F08D1FEF7E4FD401B0228F4
:10272800F5D9032502E00026E9E7002545BB214B42
:10273800D3F8903013F4407315D0226D9A4212D01A
:102748001C4AD2F8903023F44073D2F8901041F428
:102758008031C2F89010D2F8901021F48031C2F87C
:102768009010C2F8903013F0010F10D145B9114AFA
:10277800D2F8903023F44073216D0B43C2F89030A7
:10278800EEB10C4A936D23F08053936517E0FEF782
:10279800A9FD0746074BD3F8903013F0020FE5D197
:1027A800FEF7A0FDC01B41F288339842F2D90325F9
:1027B800DCE700BF001002400070004000252368DD
:1027C80013F0010F08D09F4AD2F8883023F0030392
:1027D80061680B43C2F88830236813F0020F08D0F1
:1027E800984AD2F8883023F00C03A1680B43C2F84A
:1027F8008830236813F0040F08D0924AD2F8883042
:1028080023F03003E1680B43C2F88830236813F0E3
:10281800080F08D08B4AD2F8883023F0C00321690A
:102828000B43C2F88830236813F0100F08D0854A8C
:10283800D2F8883023F4407361690B43C2F88830BA
:10284800236813F0200F08D07E4AD2F8883023F48A
:102858004063A1690B43C2F88830236813F0400F26
:1028680008D0784AD2F8883023F44053E1690B4302
:10287800C2F88830236813F0800F08D0714AD2F864
:10288800883023F44043216A0B43C2F88830236818
:1028980013F4807F08D06B4AD2F8883023F4403391
:1028A800616A0B43C2F88830236813F4003F08D0EC
:1028B800644AD2F89C3023F00303A16A0B43C2F8A0
:1028C8009C30236813F4007F08D05E4AD2F8883021
:1028D80023F44023E16A0B43C2F88830236813F4D9
:1028E800806F0CD0574AD2F8883023F44013216BFC
:1028F8000B43C2F88830236BB3F5801F79D0236867
:1029080013F4006F0CD04F4AD2F8883023F44003F8
:10291800616B0B43C2F88830636BB3F5800F6DD0E1
:10292800236813F4805F0CD0464AD2F8883023F02D
:102938004073A16B0B43C2F88830A36BB3F1807F5F
:1029480061D0236813F4005F0CD03E4AD2F8883077
:1029580023F04063E16B0B43C2F88830E36BB3F1BB
:10296800006F55D0236813F4804F0CD0354AD2F845
:10297800883023F04063216C0B43C2F88830236C05
:10298800B3F1006F49D0236813F4004F0CD02D4ADF
:10299800D2F8883023F04053616C0B43C2F888307A
:1029A800636CB3F1805F3DD0236813F4803F0CD093
:1029B800244AD2F8883023F04043A16C0B43C2F874
:1029C8008830A36CB3F1804F31D0236813F4802F83
:1029D8000CD01C4AD2F89C3023F44013E16C0B4312
:1029E800C2F89C30E36CB3F5001F25D0284603B02D
:1029F800F0BDD36843F48013D36080E7D36843F411
:102A08008013D3608CE7D36843F48013D36098E7CE
:102A1800D36843F48013D360A4E7D36843F48013E6
:102A2800D360B0E7D36843F48033D360BCE7D3689E
:102A380043F48033D360C8E7D36843F48013D3608A
:102A4800D4E700BF0010024010B4036A046A24F0FF
:102A580001040462846924F0F00C4CEA021223F0A9
:102A68000A030B438261036210BC704710B4036A07
:102A7800046A24F010040462846924F4704C4CEA5B
:102A8800023223F0A00343EA01138261036210BCFF
:102A98007047836823F4401323F070030B4343F01B
:102AA800070383607047000090F83D30DBB2012BCC
:102AB8003AD1022380F83D300268D36843F001031D
:102AC800D36003681B4A934220D0B3F1804F1DD0D6
:102AD800A2F59432934219D002F58062934215D040
:102AE80002F58062934211D002F5943293420DD0E0
:102AF80002F54062934209D002F58052934205D014
:102B08001A6842F001021A600020704799680A4A60
:102B18000A40062A0AD0B2F5803F09D01A6842F066
:102B280001021A600020704701207047002070479A
:102B380000207047002C01400700010070477047D3
:102B48007047704770B505460368DE681C6914F065
:102B5800020F10D016F0020F0DD06FF002021A61AA
:102B68000123037703689B6913F0030F7CD0FFF7F9
:102B7800E6FF00232B7714F0040F12D016F0040F91
:102B88000FD02B686FF004021A6102232B772B6891
:102B98009B6913F4407F6DD02846FFF7D0FF0023D0
:102BA8002B7714F0080F12D016F0080F0FD02B68EF
:102BB8006FF008021A6104232B772B68DB6913F086
:102BC800030F5ED02846FFF7BAFF00232B7714F0D7
:102BD800100F12D016F0100F0FD02B686FF01002E4
:102BE8001A6108232B772B68DB6913F4407F4FD0D9
:102BF8002846FFF7A4FF00232B7714F0010F02D01B
:102C080016F0010F4BD114F4025F02D016F0800FBA
:102C18004DD114F4807F02D016F0800F4FD114F0FC
:102C2800400F02D016F0400F51D114F0200F02D0FF
:102C380016F0200F53D114F4801F02D016F4801F11
:102C480055D114F4001F02D016F4001F57D114F404
:102C5800800F02D016F4800F59D114F4000F02D05F
:102C680016F4000F5BD170BDFFF768FF2846FFF729
:102C780067FF7EE72846FFF761FF2846FFF760FFFA
:102C88008DE72846FFF75AFF2846FFF759FF9CE7CC
:102C98002846FFF753FF2846FFF752FFABE72B689C
:102CA8006FF001021A612846FDF7D8FFABE72B68E1
:102CB8006FF402521A61284600F0EFF9A9E72B6871
:102CC8006FF480721A61284600F0E8F9A7E72B68CC
:102CD8006FF040021A612846FFF733FFA5E72B681B
:102CE8006FF020021A61284600F0D6F9A3E72B6896
:102CF8006FF480121A61284600F0D1F9A1E72B6819
:102D08006FF400121A61284600F0CAF99FE72B6891
:102D18006FF480021A61284600F0C3F99DE72B681A
:102D28006FF400021A61284600F0BCF99BE7000026
:102D380003683A4A904216D0B0F1804F13D0A2F5FA
:102D4800943290420FD002F5806290420BD002F587
:102D58008062904207D002F59432904203D002F587
:102D6800E052904203D123F070034A6813432B4A80
:102D7800904222D0B0F1804F1FD0A2F594329042F9
:102D88001BD002F58062904217D002F58062904213
:102D980013D002F5943290420FD002F5406290426F
:102DA8000BD002F58062904207D002F58062904213
:102DB80003D002F50062904203D123F44073CA683D
:102DC800134323F080034A69134303608B68C3628B
:102DD8000B688362114B984213D003F50063984245
:102DE8000FD003F5406398420BD003F580639842F7
:102DF80007D003F58063984203D003F50063984237
:102E080001D10B69036301234361036913F0010FC7
:102E180003D0036923F0010303617047002C0140CC
:102E280060B310B5044690F83D3013B3022384F81C
:102E38003D30214651F8040BFFF77AFF012384F84F
:102E4800483084F83E3084F83F3084F8403084F8C5
:102E5800413084F8423084F8433084F8443084F8B0
:102E6800453084F8463084F8473084F83D300020F7
:102E780010BD80F83C30FEF765F9D7E701207047B0
:102E880010B4846824F47F4C42EA03220A4342EADD
:102E98000C02826010BC704790F83C30012B00F0A7
:102EA8009B8010B50446012380F83C30022380F84B
:102EB8003D3002689068494B034093600B68702B63
:102EC80061D031D8502B78D00CD9602B2AD1CA6860
:102ED80049682068FFF7CAFD60212068FFF7D9FD1F
:102EE800002038E0402B0AD1CA6849682068FFF7FB
:102EF800ABFD40212068FFF7CCFD00202BE067D810
:102F0800202B07D003D9302B04D0012023E00BB1AC
:102F1800102B05D119462068FFF7BBFD00201AE0E9
:102F2800012018E0012016E0B3F5005F38D00ED973
:102F38002B4A9342EED015D92A4A9342EAD010324E
:102F48009342E7D0203A9342E4D0012003E0B3F55E
:102F5800805F3FD10020012384F83D30002384F8AE
:102F68003C3010BD203A9342D4D004D91E4A934233
:102F7800D0D00120EFE7B3F5801FCBD0B3F1101FFD
:102F8800C8D00120E7E7CB684A6889682068FFF75E
:102F980077FF2268936843F0770393600020DAE7AD
:102FA800CB684A6889682068FFF76AFF22689368D7
:102FB80043F4804393600020CDE7CA6849682068DD
:102FC800FFF742FD50212068FFF763FD0020C2E7AC
:102FD8000120C0E70120BEE7022070478800CEFF2D
:102FE80040001000600010003000100090F83C30E5
:102FF800012B4CD030B4012380F83C30022380F8F8
:103008003D30026853689468224DAA4207D005F5FE
:103018000065AA4203D005F5E055AA4203D123F47E
:1030280070034D682B4323F0007323F070030D6881
:103038002B4353600368174A93421AD0B3F1804F69
:1030480017D0A2F59432934213D002F580629342CE
:103058000FD002F5806293420BD002F5943293426E
:1030680007D002F54062934203D002F580529342A2
:1030780004D124F080048A6814439C60012380F8FA
:103088003D30002380F83C30184630BC70470220A1
:10309800704700BF002C0140704770477047704769
:1030A800704770477047000070B50D4E0D4D761B88
:1030B800B61006D0002455F8043B01349847A642C0
:1030C800F9D1094E094D761B00F0D4F8B61006D098
:1030D800002455F8043B01349847A642F9D170BD45
:1030E800C0320008C0320008C8320008C0320008E8
:1030F800830730B548D0541E002A3FD0CAB20346D1
:1031080001E0013C3AD303F8012B9D07F9D1032CC8
:103118002DD9CDB245EA05250F2C45EA054536D906
:10312800A4F1100222F00F0C03F1200EE6444FEA3E
:10313800121C03F1100242E9045542E9025510320B
:103148007245F8D10CF1010214F00C0F03EB0212D6
:1031580004F00F0C13D0ACF1040323F00303043381
:10316800134442F8045B9342FBD10CF003042CB1E6
:10317800CAB21C4403F8012B9C42FBD130BD644603
:103188001346002CF4D1F9E703461446BFE71A4664
:10319800A446E0E7024B13B1024800F005B87047B7
:1031A80000000000BD310008002301461A461846F9
:1031B80000F01AB838B5084B084D5B1B9C1007D0B7
:1031C800043B1D44013C55F804399847002CF9D1BB
:1031D800BDE8384000F054B8CC320008C8320008C6
:1031E800704700BF704700BF2DE9F047DFF87CA0AB
:1031F8000646DAF8000098460F469146FFF7F0FFBA
:103208001B4B1B68D3F8484124B365681F2D26DC87
:103218005EB96B1C0235DAF80000636044F825706B
:10322800FFF7E0FF0020BDE8F08704EB85010123EC
:10323800C1F88890D4F88821AB401A43022EC4F80C
:103248008821C1F80881E4D1D4F88C211343C4F84B
:103258008C31DEE703F5A674C3F84841D5E7DAF800
:103268000000FFF7BFFF4FF0FF30DCE73804002015
:10327800BC320008F8B500BFF8BC08BC9E467047D1
:0C328800F8B500BFF8BC08BC9E467047BB
:103294000000000000000000010203040607080902
:1032A40000000000010203040001020304050607F4
:0C32B400080C10141820304010000020FE
:0832C0009D310008FD0100082A
:0432C800D901000820
:1032CC000024F400010000001000000000000000C9
:1032DC0000000000FC02002064030020CC0300204E
:1032EC0000000000000000000000000000000000D2
:1032FC0000000000000000000000000000000000C2
:10330C0000000000000000000000000000000000B1
:10331C0000000000000000000000000000000000A1
:10332C000000000000000000000000000000000091
:10333C000000000000000000000000000000000081
:10334C000000000000000000000000000000000071
:10335C000000000000000000000000000000000061
:10336C000000000000000000000000000000000051
:10337C000000000000000000010000000000000040
:10338C000E33CDAB34126DE6ECDE05000B00000005
:10339C000000000000000000000000000000000021
:1033AC000000000000000000000000000000000011
:1033BC000000000000000000000000000000000001
:1033CC0000000000000000000000000000000000F1
:0C36FC0000000000000000009807002003
:040000050800126578
:00000001FF
